:400000000040002011000000AD030000AD03000008B5044B1A6803F53F5302331A6000F0E5F900BFFA46004010B5054C237833B9044B13B10448AFF300800123237010BD79
:4000400070C1FF1F00000000A03D0000084B10B51BB108490848AFF300800848036803B910BD074B002BFBD0BDE81040184700BF0000000074C1FF1FA03D0000C8C0FF1F38
:4000800000000000F0B591B062B6012000F0DEFA00F034FA00F0AEFA284800F0C5FA284800F0C2FA274800F065FA274800F0BCFA00F048FA0028FBD000F02EFA8DF80B00C8
:4000C0000A2833D1214D224E224B0193224C00942B46224A2249304600F062FD284600F0F7FC204D00F0A4FC2860204600F0F0FC00F09EFC04461C4B186050220021304608
:4001000000F021FD286800F03FFC06460F46204600F03AFCCDE9000132463B46134903A800F01AFD03A800F07FFAC1E701220DF10B01074800F068FDBAE700BFA83D000039
:40014000BC3D0000D43D0000083E000008C2FF1FA4C1FF1FF8C1FF1F98C1FF1F14C2FF1F143E0000F4C1FF1F04C2FF1F643E0000FEE700BFF0B40022174611E050F8276050
:40018000F3B226F0FF0608E001EB420511F812406D78A5550132013BDBB2002BF4D10137112FEBD9F0BC7047064B1B78DBB203F00701054A11701B09013213704422034BD5
:4001C0001A707047CF0100496E5800407658004008B50A46002100F0B6FC08BD38B54FF49C73274A138019250232157002321380244B1D70022203F27A231A7008224FF056
:4002000040231A70042203F500731A701E4B1B78DBB21E4A137040F608721D4B1A8041F25122023B1A8000240CE01A4B1B7803F0010343EA440404F003044FF4F07000F011
:400240002FFA013D0DB1032CEFD115B90320FFF78FFF114B4FF480721A8007221A7000220E490A704820023108701A700222033B1A700B4A137843F00303137038BD00BF4B
:40028000804000408640004089010049A146004022420040254200400440004006400040A243004008B500F043FC08BD38B572B6314A137843F00403137000240CE02F4DAF
:4002C000630019194A0011462A44084691882858FFF77EFF0134E4B20B2CF0D900240CE02648A20011194B000344B3F85020D96C986CFFF7D7FF0134E4B2012CF0D92049FF
:400300004FF09040FFF736FF1E4A137843F0020313701032137843F0020313701A4C237843F040032370A2F58632513A137843F010031370082215491548FFF7B3FF0A225C
:4003400014491548FFF7AEFF144A137843F008031370134D61232B70FFF740FF81232B700122104B1A70FFF71FFF0E2221460E48FFF798FF38BD00BFE84600407C3E000011
:400380004800004803500140A0430040CC06004812510040D406004830510040224300400048004004000840B043004008B500F093FB03680C2B00D1FEE7FEE708B5094B21
:4003C0001A681044084BC31A802B02DC054B186005E000F081FB0C2303604FF0FF32104608BD00BFCCC0FF1F28C2FF1F08B5104E104D16E029686B68AC68002204E051F892
:40040000040B43F8040B0432A242F8D1E868002203E0002143F8041B04328242F9D11035013E002EE6D100F05DFBFFF72BFEFEE7010000002042000008B5104A104B1A60E8
:40044000104A136843F40073136000230AE0032B03D80D4A52F8231000E00C490C4A42F8231001332F2BF2D90A4B1A780A4B1A70074A0A4B1A60FFF719FF08BD0004FA0593
:400480000CED00E014ED00E000000000AD03000000C0FF1FBC760040C0C0FF1F08ED00E07622074B1A70202201331A700E225C3B1A708F2210331A70002250331A707047E6
:4004C0008264004010B500F0F3F804460A4A137843F0200313700132137843F0100313700432137843F01003137000F0BBF8204600F0E2F810BD00BF9264004008B5054B81
:400500001B7823B9FFF7CCFF0122024B1A70FFF7D9FF08BD8CC1FF1F084B1B78DBB213F0200F06D0064A1078C0B213F01E0F02D17047002070470020704700BF63640040A0
:4005400042640040044B1B7813F0200F01D0012070470020704700BF63640040034B1B7813F0040FFAD1024B18707047676400404464004038B5074B1B782BB938BDFFF759
:40058000EDFF0134A4B201E005460024285D0028F5D138BD8CC1FF1F7622074B1A70202203331A700E22623B1A708F2210331A70002251331A7070478465004010B500F091
:4005C00077F804460A4A137843F0200313700332137843F010031370013A137843F01003137000F04DF8204600F066F810BD00BF9465004008B5054B1B7823B9FFF7CCFF87
:400600000122024B1A70FFF7D9FF08BD8EC1FF1F034B1B7813F0040FFAD1024B18707047666500404664004038B5074B1B782BB938BDFFF7EDFF0134A4B201E00546002415
:40064000285D0028F5D138BD8EC1FF1F044A137803F07F03C001C0B218431070704700BF30510040054A137843F0010313701032137843F001031370704700BFA24300405C
:40068000054A137843F0020313701032137843F002031370704700BFA2430040000000000230800803D000BF01380046FCD17047EFF3108072B6704780F31088704700BF61
:4006C00081F0004102E000BF83F0004330B54FEA41044FEA430594EA050F08BF90EA020F1FBF54EA000C55EA020C7FEA645C7FEA655C00F0E2804FEA5454D4EB5555B8BF4E
:400700006D420CDD2C4480EA020281EA030382EA000083EA010180EA020281EA0303362D88BF30BD11F0004F4FEA01314FF4801C4CEA113102D0404261EB410113F0004F3B
:400740004FEA03334CEA133302D0524263EB430394EA050F00F0A780A4F10104D5F1200E0DDB02FA0EFC22FA05F2801841F1000103FA0EF2801843FA05F359410EE0A5F1A9
:4007800020050EF1200E012A03FA0EFC28BF4CF0020C43FA05F3C01851EBE37101F0004507D54FF0000EDCF1000C7EEB00006EEB0101B1F5801F1BD3B1F5001F0CD34908C3
:4007C0005FEA30004FEA3C0C04F101044FEA445212F5800F80F09A80BCF1004F08BF5FEA500C50F1000041EB045141EA050130BD5FEA4C0C404141EB010111F4801FA4F145
:400800000104E9D191F0000F04BF01460020B1FA81F308BF2033A3F10B03B3F120020CDA0C3208DD02F1140CC2F10C0201FA0CF021FA02F10CE002F11402D8BFC2F1200C51
:4008400001FA02F120FA0CFCDCBF41EA0C019040E41AA2BF01EB0451294330BD6FEA04041F3C1CDA0C340EDC04F11404C4F1200220FA04F001FA02F340EA030021FA04F3CF
:4008800045EA030130BDC4F10C04C4F1200220FA02F001FA04F340EA0300294630BD21FA04F0294630BD94F0000F83F4801306BF81F480110134013D4EE77FEA645C18BF7A
:4008C0007FEA655C29D094EA050F08BF90EA020F05D054EA000C04BF1946104630BD91EA030F1EBF0021002030BD5FEA545C05D14000494128BF41F0004130BD14F5800469
:400900003CBF01F5801130BD01F0004545F0FE4141F470014FF0000030BD7FEA645C1ABF194610467FEA655C1CBF0B46024650EA013406BF52EA033591EA030F41F40021EC
:4009400030BD00BF90F0000F04BF0021704730B54FF4806404F132044FF000054FF0000150E700BF90F0000F04BF0021704730B54FF4806404F1320410F0004548BF4042C1
:400980004FF000013EE700BF42004FEAE2014FEA31014FEA02701FBF12F07F4393F07F4F81F06051704792F0000F14BF93F07F4F704730B54FF4607401F0004521F00041E3
:4009C00020E700BF50EA010208BF704730B54FF000050AE050EA010208BF704730B511F0004502D5404261EB41014FF4806404F132045FEA915C3FF4DCAE4FF003025FEAC4
:400A0000DC0C18BF03325FEADC0C18BF033202EBDC02C2F1200300FA03FC20FA02F001FA03FE40EA0E0021FA02F11444C1E600BF4FEA4102B2F1E04324BFB3F5001CDCF129
:400A4000FE5C0DD901F0004C4FEAC0024CEA5070B2F1004F40EB830008BF20F00100704711F0804F21D113F13872BCBF01F00040704741F480114FEA5252C2F11802C2F1E3
:400A8000200C10FA0CF320FA02F018BF40F001004FEAC1234FEAD32303FA0CFC40EA0C0023FA02F34FEA4303CCE77FEA625307D150EA01331EBF4FF0FE4040F44000704739
:400AC00001F0004040F0FE4040F40000704700BF002100F0CDBE0000014B1868704700BF30C1FF1F0E4B70B51E460E4C0025E41AA410A54204D056F8253098470135F8E75B
:400B000003F07CFB084B094C1E46E41AA4100025A54204D056F8253098470135F8E770BD0842000008420000084200001042000010B5431E0A44914204D011F8014B03F84E
:400B4000014FF8E710BD03460244934202D003F8011BFAE7704700000EB400B54FF402719CB0ADF814106FF00041049107914FF6FF711DAB02900690084853F8042BADF871
:400B80001610006802A9019301F04CFE029B00221A701CB05DF804EB03B0704730C1FF1F0EB430B59CB01FAC4FF4017254F8045BADF814200290069000F01EF80B4B03904C
:400BC0000B9300230F9314934FF6FF7307900848ADF816302A46234602A90068019401F071FF1CB0BDE8304003B07047F50B000030C1FF1F00207047034613F8012B002AA5
:400C0000FBD1181A01387047034630B51C785D1C44B12B46FAE711F8014B03F8014B24B102B91A7012F1FF32F5D230BD2DE9F0410F46904601F00CFC04460D46B8F1000FE6
:400C400011D0C7F30A53C3F16B03002B0BDD1B0503F17F55002405F5401522462B4602F0BDFDBDE8F08120462946BDE8F08100002DE9F04F82460C469DB000231392189337
:400C80004FF000084FF000091791179B1A780D2A05D8092A13D2002A00F0AD8112E02B2A04D02D2A04D0202A0CD108E0002200E001220C925A1C17925B782BB99BE10133A7
:400CC0001793E2E700230C93179D2B78302B5CD16B78582B01D0782B4CD10C9BA84A019318AB009317A919AB504600F014FE10F00706044600F08585062E05D10135002396
:400D000017950C9300F07DBD189A3AB135211AA801F085FC1899504601F009F9062E22D8DFE806F0040D08181D0D04004FF00009C84618E0DDF86880DDF86C9013E01B9B0E
:400D4000199A23F4801302F23342DDF8688043EA025908E0DFF82C924FF0000803E06FF000494FF0FF38210740F14B8549F0004900F047BD179B5A1C17925B78302BF9D03C
:400D8000002B00F03E85012300E000230593179B0A22069300239B4602930493179D2E78A6F13003D9B2092911D8BBF1080FD5BF0499029902FB013302FB013305F1010538
:400DC000D4BF049302930BF1010B1795E6E7504601F074F80768504601F070F80068FFF70BFF39460246284602F0F4FA074628B1002033465D46024601465AE0504601F033
:400E00005DF80068FFF7F8FE179B1A1817921B5CBBF1000F45D15846302B05D1179B01305A1C17925B78F7E7A3F13102082A46D8179A0692024600200546303B00F1010141
:400E400029D00A44294605EB000C0A2661450FD0013101F1FF3EBEF1080F03DC049F77430497F3E71029DEBF029F77430297EDE72844082800F1010505DC04980A2101FB5E
:400E80000033049306E0102DDFBF02980A2101FB003302930021179B581C17905B78084602E05D4638463A46A3F130010929C4D90121652B01D0452B4FD16DB904E0652B4B
:400EC00040F0AD840022012128B9059B002B00F09280054600E00025179C631C179363782B2B06D02D2B02D00026039606E0012300E000230393A31C1793A378A3F1300692
:400F0000092E29D8302B04D1179B5E1C17965B78F8E7A3F13106082E1FD8A3F1300E179B1F46179B5E1C17965B78A3F1300CBCF1090F05D80A2606FB0E3EAEF1300EF0E78E
:400F4000F61B082E44F61F6602DC7645A8BF7646039F1FB1764201E017940026002D52D1002840F04E84059A002A40F04A84002941D14E2B20D007DC492B0AD03BE000BFE3
:400F8000FC3E00000000F07F692B02D06E2B13D031E0AA4917A800F0EFFE60B3179BA849013B17A8179300F0E7FE10B9179B01331793DFF8A8921AE0A24917A800F0DCFEFE
:400FC000C8B1179B1B78282B0FD11AAA9E4917A800F0E5FE052808D11B9BDDF8688043F0FF4949F4E00900F00CBCDFF874924FF0000800F006BC139B1794002B00F00C8417
:4010000000230C93FFE32C46BBF1000F08BFAB460498102DA8BF1024B71AFFF793FC092C8046894613DD894B03EBC40353E9122302F0D4FB804602988946FFF783FC0246FC
:401040000B4640464946FFF741FB804689460F2D33DC002F00F0D58322DD162F07DC7B4D424605EBC7014B46D1E9000113E0C5F125039F4221DC754CC5F10F0504EBC50117
:401080007D1B4246D1E900014B4604EBC50402F0A5FBD4E9002302F0A1FB80468946B0E317F1160F09DB694D4046A5EBC703D3E90023494602F0BCFCEFE72C1B3C44002C5C
:4010C0005DDD14F00F010AD0604B424603EBC101D1E900014B4602F081FB8046894634F00F0400F0C180B4F59A7F0FDD4FF0000BCDF808B0CDF814B0CDF810B02223CAF8A4
:401100000030DFF858914FF0000889E14046494600234F4E24110293012C0CDDE20704D5D6E9002302F05AFB0123029A6410013202920836F0E70BB180468946444B029AE2
:40114000A9F1547903EBC201D1E9000142464B4602F044FB21F0004389460A461B0D3D491B058B428046C1D8A1F580118B4286BFDFF8F0904FF0FF3802F1547974E073D088
:40118000644214F00F020AD0304B404603EBC2034946D3E9002302F04BFC80468946241162D01F2C08DD4FF0000BCDF808B0CDF814B0CDF810B02CE14046494614F0100FF9
:4011C0000CBF00236A23244E03930023002C09DDE20704D5D6E9002302F000FB012364100836F3E70BB180468946039BEBB1C9F30A53C3F16B03002B494616DD1F2B0EDD4E
:40120000342BDEBF203B4FF0FF3202FA03F34FF00008CCBF4FF05C7903EA010905E04FF0FF3202FA03F303EA0808002200234046494602F03BFD0028B5D117E0F03E00007D
:40124000F33E0000F93E0000DC3E0000403F0000184000000000A07C103F00000000F07F0000F8FFFFFFEF7F00230393049B5A46009306992B46504600F0ABFE0590002851
:401280003FF434AF002FC7F10003A8BF00230D934FF0000B27EAE7731293CDF808B0059B5046596800F00EFE049000283FF426AF059B0C301A6903F10C0102329200FFF75A
:4012C00037FC1AAB019319AB009342464B465046CDE9088901F02DF9189000283FF40EAF0121504600F000FF029000283FF406AF199B0399002BACBF0D9A129A1A9CACBF9B
:40130000D618D21AA3EB01032344B14903F1FF33ACBF129A0D9E8B42C4F1360480F28580C91A1F29C8BFAB4D4FF00107D4BF07FA01F3ED1AA4EB0104D9BF0793002507FA59
:4013400005F507973719039BBE4214441C443346A8BF3B46A342A8BF2346002BC2BFFF1AE41AF61A0D9B002B63D1002F7ADC129B002B40F08180002C00F38880002E00F369
:401380008F80049A1899504601F003F8834600283FF4B4AEC3680024C4600299069300F0DCFFA04280F28B80069B002B40F00282B8F1000F40F0FE81C9F31303002B40F0E2
:4013C000F98129F000431B0D1B05B3F1D66F40F2F181DBF81430002B6CD059460122504600F06AFF0299834600F0B7FF002840F3E18129F00043039A1B0D1B05002A00F0F1
:401400008D80B3F1D66F00F38980B3F15C7F00F3D38122234FF000084FF00009CAF80030059B002B40F0D981EBE101230025079388E71A460299504600F0F0FE0290002892
:401440003FF45CAE0146189A504600F056FE069000283FF453AE1899504600F068FD069B189382E73A461899504600F025FF189000287FF47CAF41E6129A0499504600F0DA
:40148000CDFE049000287FF476AF37E622460499504600F011FF049000287FF46FAF2DE632460299504600F007FF029000287FF468AF23E6DBF81030012B8EDC7AE161D1D3
:4014C000069AC9F3130322B343494A468B422ED1039B414663B1414B1340B3F1D46F07D81B0DC3F16B034FF0FF3000FA03F301E04FF0FF338B421AD139498A4202D10133D8
:401500003FF4FCAD354B4FF00008134003F5801950E163B9B8F1000F09D16AE7A3F580136FEA13594FF0FF386FEA095942E115B115EA090F02E0079B13EA080F00F03A8190
:40154000069B039A4046494653B1FFF76FFB02460B46DDE90801FFF7B9F88046894629E1FFF764FB02460B46DDE90801FFF7ACF8002200238046894602F098FB00287FF4B5
:4015800048AF17E10299584601F021F800224FF0804306460F4602F09DFB00283FD0069B13B100260F4F10E0B8F1000F03D1C9F313033BB91AE0B8F1010F03D1B9F1000F08
:4015C0003FF427AF084F00260024064D3CE000BF02FCFFFFE2FBFFFFFFFF0F000000F07FFFFFEF7F0000F03F0000F0BF00229A4B3046394602F064FB40B90022974B3046B6
:40160000394602F0EBF804460D4601E0069C934D05F1004314941593DDE9146714E08F4B00223046394602F0D9F8069B04460D4623B901F100430E900F9303E002460B46D9
:40164000CDE90E23DDE90E6729F000431B0D1B050793079A824B9A422BD1DDE90823A9F1547940464946CDE90A2300F0F1FE02460B463046394602F0B1F842464B46FFF75D
:4016800025F821F000431B0D764A1B05934280460CD9754B0B9A9A4203D10A9B01333FF42DADDFF8C4914FF0FF3872E001F1547939E0039B3BB3079BB3F1D46F23D85EA359
:4016C000D3E900232046294602F004FBB8B12946204602F045FB002808BF0120FFF732F9069B04460D4623B901F100431090119303E002460B46CDE91023DDE91067079ACE
:4017000007F1D6639F1ADDE9080100F0A1FE02460B463046394602F061F8DDE90823FEF7D5FF80468946039B9BBB29F000431B0D079A1B059A424E462BD12946204602F0CD
:40174000E7FAFFF70FF90B46024629462046FEF7BBFF069B04460D462BB9B8F1000F02D1C9F313067EB136A3D3E900232046294602F0A6FA88BB34A3D3E9002320462946CF
:4017800002F0BCFA04E032A3D3E9002302F098FA18BB1899504600F0CAFB0499504600F0C6FB0299504600F0C2FB5946504600F0BEFB74E5039B83B12C4B40460B9300230D
:4017C0000A934946DDE90A2302F008F88046894619B910B92223CAF800301899504600F0A6FB0499504600F0A2FB0299504600F09EFB0599504600F09AFB5946504600F041
:4018000096FB139B13B1179B139A13600C9B1BB1424609F1004307E042464B4604E000252A460121FFF747BB104619461DB0BDE8F08F00BFAFF300800000C0FFFFFFDF41A4
:401840009535A094FFFFDF3F35E5AF350000E03F9535A094FFFFCF3F0000F03F0000E03F0000E07FFFFF9F7CFFFFEF7F00005039024B0A4601461868FFF7FAB930C1FF1F50
:40188000F0B506694B11B34200F1140527DA11F01F0105EB860605EB830201D1294616E0141D55F823202B46C1F1200ECA40B44209D2276807FA0EF73A4343F8042B54F8BA
:4018C000042BCA40F3E71A6052B1043308E0B2420B4605D252F8043B41F8043BF7E72B465B1B9B10036103B94361F0BDA0F13003092B01D820380AE0A0F16103052B01D82A
:40190000473804E0A0F14103052B02D82738C0B27047002070472DE9F04F8BB08A4690460693029000F0CAFA03684FF0000B18460393FFF761F9039B0190034413F8013C3A
:401940000793DAF8003002331F4613F8010B302802D10BF1010BF7E7FFF7C8FF0446E0B9019A0399384601F035FD002834D1019BF85CFE18FFF7BAFF80B3334618781F460E
:40198000302803F10103F9D0FFF7B0FFB0FA80F534466D094FF0010B01E000252C463A46164630780132FFF7A1FF0028F8D1019A0399304601F00EFD50B954B9019BF418F2
:4019C0002246164630780132FFF790FF0028F8D134B1A41BA40003E03E4600E0044601253378502B01D0702B2AD173782B2B08D02D2B03D0711C4FF0000905E04FF00109FF
:401A000001E04FF00009B11C0878FFF76FFF431EDBB2182B14D8A0F1100211F8010FFFF765FF431EDBB2182B04D80A2303FB0202103AF2E7B9F1000F00D05242144400E0E5
:401A40003146CAF800102DB1BBF1000F14BF002006207CE12946F31B013B072B02DD01315B10FAE7029800F02DFA4FF000090546CB46019B00F1140AC3F10103CDF810A099
:401A80000893B7422FD2731E0593079A16F8013C93420BD0BBF1200F16D1049BC3F8009004334FF000090493CB460DE0059B089A13449F42EED81846019A0399099301F0AA
:401AC00089FC099B68B1E5E716F8010CFFF70EFF00F00F0000FA0BF0059B49EA00090BF1040B1E46CDE7049840F8049BCAEB0000801028614701484600F0A9FAD8F80060ED
:401B0000381AB04226DD871B3946284600F0A1FDC8B17B1E591103F01F024FF001095AF8211009FA02F20A420ED04B4502DC4FF0020909E0B91E284600F08BFD0028F6D078
:401B40004FF0030900E0814639462846FFF798FE3C440CE009DA371A29463A46029800F0ABFB0546E41B00F1140A4FF00009D8F808309C4208DD0298294600F0D8F9149A57
:401B800000231360A320E2E0D8F80400844253DA041BA6422EDCD8F80C30022B1AD0032B1CD0012B1DD1A6421BD1012E0BDCD8F80430069A6220136001232B61CAF80030B6
:401BC000149B1D60C3E0711E284600F042FD0028EDD106E0159B002BE9D002E0159B002BE5D10298294600F0A2F9149A002313605020ACE0671EB9F1000F06D13FB13946BF
:401C0000284600F026FD814601E04FF001097A11012307F01F0703FA07F75AF8223021461F42284618BF49F00209361BFFF728FE0227D8F8044000E00127B9F1000F00F01B
:401C40008180D8F80C30022B0ED0032B10D0012B76D119F0020F73D0DAF8000049EA000919F0010F07D16BE0159BC3F101031593159B002B64D0D5F810A005F114034FEA42
:401C80008A0903EB090100201A68B2F1FF3F02D001321A6020E043F8040B9942F4D8AB689A4512DB69680298013100F00BF983462A6905F10C01023292000C30FEF738FFA9
:401CC0002946029800F033F95D462B695A1C2A6105EB830301225A61022F05F1140211D1D8F80030013B9E4227D17111012306F01F0603FA06F652F821301E420CBF022757
:401D000001271AE02B699A450ADA01212846FFF7B7FDD8F8083001349C423FF72CAF0BE016F01F0608D0914459F8040C00F08FF9C6F12006B042E8DB012747F0200701E02F
:401D400047F010073846149B1D60069B1C600BB0BDE8F08FC2F10802920070B5C2F120064368056803FA06F42C43D340046040F8043F8842F4D370BD30B5036811F8014B4F
:401D800001334CB11A78A2F14105192D98BF2032A242F3D0002030BD0360012030BD0B682DE9F04F5E1102EB860613F01F0318BF0436351F174600228246A8462C469146BB
:401DC00085B0D0F800B0019346F8042C00921BF8011F00293CD0084603920291FFF786FD039A00BB0299202916D8009B9945EEDD444505D2072A03DC41462046FFF7AAFFE1
:401E0000BC4223D90023A4F1040844F8043CCDF8009044461A46DAE7292948D10BF10103CAF8003014E00132082A09F1010906DDBC42CCD9002344F8043C0122043C21689D
:401E400000F00F0040EA01102060C0E70822BEE7B9F1000F2BD0444505D2072A03DC41462046FFF777FFBC420CD93B4654F8042BA54243F8042BF9D2002243F8042B9D424F
:401E8000FBD20BE0019B4BB1C3F120024FF0FF33D34056F8042C134046F8043C2B6843B9BD4202D101232B6003E0043DF6E7042000E0052005B0BDE8F08F00000048704717
:401EC00034C1FF1F70B5456A04460E463DB9102001F0D4FB6062456085600560C560656AEB6843B1636ADB6853F8260078B1026843F8262017E021220421204600F0CBFB7B
:401F0000636AE860DB68002BECD1002070BD012101FA06F56A1D9200204600F0BCFB0028F3D04660856000230361C36070BD70B5446A06460D463CB9102001F09FFB706295
:401F4000446084600460C4603DB1736A6A68DB6853F82210296043F8225070BD2DE9F04106460C460D691F4601F1140E0023DEF80000013381B202FB0171000C0F0C02FBCA
:401F8000007089B201EB00419D424FEA10474EF8041BECDCD7B1A3689D4212DB616830460131FFF78FFF8046226904F10C01023292000C30FEF7BCFD21463046FFF7B7FFCD
:401FC000444604EB850301355F6125612046BDE8F0812DE9F843064615461F46092208330C4693FBF2F3002101229A4202DA52000131FAE73046FFF765FF089B092D4361B2
:402000004FF00103036111DD04F10908C1462C4419F8013B0146303B0A223046FFF79EFFA145F5D108EB0504083C01E00A3409252D1B63199F4208DD14F8013B0146303B9D
:402040000A223046FFF78AFFF3E7BDE8F883030C1B0413B90004102300E0002310F07F4F04BF0002083310F0704F04BF0001043310F0404F04BF80000233002803DB42003A
:4020800003D5581C70471846704720207047036813F007020BD0D90722D49A074BBF5B089B08036003604CBF01200220704799B209B91B0C102213F0FF0F04BF1B0A0832D4
:4020C000190704BF1B090432990704BF9B080232D90702D45B0805D00132036010467047002070472020704710B50C460121FFF7E9FE01224461026110BD2DE9F74F144646
:402100000A69236988469A42BEBF0B46A0461C46D8F81070D4F81090D8F80830D8F8041007EB09069E42C8BF0131FFF7CBFE00F114052B4605EB860C0022634502D243F809
:40214000042BFAE704F1140208F1140102EB890301EB87070093009B0192934257D9B2F800B0BBF1000F23D08946AE464FF0000859F8044BBEF800A0A3B20BFB03A34FEA3B
:40218000144ADEF8004043444FEA14480BFB0A84F24604EB13449BB243EA04434F454FEA14484AF8043B01D9D646E1E7CEF80480019B0432B3F802A0BAF1000F21D02C46CE
:4021C00089462B684FF00008B9F800E0B4F802B09BB20AFB0EBEA346F04443EA08434BF8043B59F8043BB4F804E01B0C0AFB03E34F4503EB18434FEA134801D95C46E3E729
:4022000063600435A7E75CF8043D13B9013E002EF9DC066103B0BDE8F08F00002DE9F843154612F0030206460F4607D0214C013A002354F82220FFF791FE0746AD1036D01A
:40224000746A3CB9102001F019FA7062446084600460C460D6F82480D8F808404CB940F271213046FFF740FF04460023C8F8080003604FF00008EB070AD53946224630466A
:40228000FFF73BFF814639463046FFF750FE4F466D100CD0206808B10446ECE7224621463046FFF72AFF2060C0F80080F4E73846BDE8F883084000002DE9F0470C460746D9
:4022C000914626694FEA621A56444968A368751CAB4202DA01315B00FAE73846FFF7F2FD002380461A4600F11401534503DA41F823200133F9E72AEAEA73206901EB830382
:4023000019F01F0904F1140101EB800E14D0C9F1200C002208689A4600FA09F0024343F8042B51F8042B8E4522FA0CF2F2D8CAF8042042B1B51C06E0043B51F8042B8E45C1
:4023400043F8042FF9D8013D3846C8F810502146FFF7EDFD4046BDE8F08703690A6910B59B1A11D192001430143183180A4453F8044D52F8041D8C4202D007D3012010BDAB
:402380009842F4D3002010BD184610BD4FF0FF3010BD2DE9F8430C460746114620461546FFF7DBFF061E08D131463846FFF78AFD012303614661BDE8F883BCBF23462C463D
:4023C00038466168BABF1D4601260026FFF77AFD2B69C660266905F1140904F1140101EB860709EB830800F114054FF0000C51F8042B59F8044B93B29C44A3B2240CC3EBDD
:402400000C03C4EB124202EB23429BB24FEA224CC84543EA02428E4645F8042BE7D8BE450ED25EF8041B8AB26244131403EB114392B242EA03424FEA234C45F8042BEEE786
:4024400055F8043D0BB9013EFAE70661BDE8F883104B0B40A3F15073002B02DD0020194670475B421B15132B4FF000004FF0000104DC4FF4002242FA03F17047143B1E2BD8
:402480004FF00102CEBF1346C3F11F0302FA03F3184670470000F07FF8B5056900F1140606EB850555F8044C2F1F2046FFF7CFFDC0F120030A280B6014DCC0F10B0E24FAAB
:4024C0000EF1BE4241F07F5334BF55F8081C0021153004FA00F021FA0EF143F4401340EA010223E0BE423ABFA5F1080755F8081C00210B3815D08440C0F1200544F07F5455
:4025000044F44014B74221FA05FE44EA0E038CBF57F8044C002401FA00F0EC4040EA040204E00A4644F07F5343F4401310461946F8BD2DE9F3411C4601219046089E099D46
:40254000FFF7C0FCC4F31302C4F30A5407460CB142F480120192B8F1000F19D002A840F8088DFFF794FD009B48B1019AC0F1200102FA01F10B43C2407B61019200E07B615A
:40258000019B002B14BF02210121BB61396107E001A8FFF77CFD019B01217B613961203034B1A4F2334404443460C0F1350009E0A0F2324007EB810330601869FFF747FDA1
:4025C000C0EB41102860384602B0BDE8F0812DE9F743884669468146FFF75EFF0D46044601A94046FFF758FF0F460646D9F81030D8F8102020469A1A9DE80A00C91A01EBE6
:402600004213002BCCBF05EB0355A7EB035732463B46294601F00CFA03B0BDE8F083013910B549111469013102F1140300EB810103EB8404A342024604D253F8042B40F887
:40264000042BF7E700238A4202D242F8043BFAE710BD00F1140200694B11984210B50CDB0CDD11F01F0109D052F8234024FA01F000FA01F18C420CD100E0034602EB83033F
:40268000934204D953F8041D0029F9D001E0002010BD012010BD38B502FB01F4214600F009F8054618B122460021FEF74CFA284638BD000070B5CD1C25F0030508350C2D3B
:4026C00038BF0C25002D064601DBA94202D90C23336046E001F003F8234B1C681A462146A1B10B685B1B0ED40B2B03D90B60CC18CD501EE08C420BBF63684B681360636025
:4027000018BF0C4615E00C464968E9E7174C23681BB9304600F01EFE20602946304600F019FE431C18D0C41C24F00304A0420DD12560304600F0D4FF04F10B00231D20F0E8
:402740000700C31A0ED05A42E25070BD211A304600F000FE0130EBD10C233360304600F0BFFF002070BD00BF94C1FF1F90C1FF1F2DE9F0478E6882469E420C46914698464A
:402780003ED88A8912F4906F3AD02568096902236F1A656905EB450595FBF3F57B1C43449D4238BF1D4653050FD52946FFF782FF064698B13A462169FEF7BAF9A38923F4B1
:4027C000906343F08003A38113E02A4600F0D6FF064670B92169504600F084FF0C23CAF80030A3894FF0FF3043F04003A381BDE8F08726613E44266046466561ED1BA5607D
:40280000464528BF464649463246206800F04CFFA36800209B1BA36023681E442660BDE8F08700002DE9F04F9DB003938B8980461C060D4616460DD50B695BB94021FFF7B9
:4028400039FF2860286118B90C23C8F80030CDE040236B610023099320238DF82930DFF89CB130238DF82A3037463C4614F8013B1BB9B7EB060910D003E0252BF9D02746F8
:40288000F3E74B46324629464046FFF771FF013000F0A780099B4B4409933B78002B00F0A08000234FF0FF3204930793059206938DF853301A930126052221784E4800F0BF
:4028C000E5FE671C049B38B14B4A3C46801A06FA00F018430490EFE7D90644BF20228DF853201A0744BF2B228DF8532022782A2A03D0079A00210A200BE0039A111D126822
:402900000391002A10DA524243F00200079204900BE027463B780134303B092B03D800FB02320121F5E701B107923B782E2B1ED17B782A2B0AD1039B02371A1D1B68039283
:40294000002BB8BF4FF0FF33059310E0002319460593781C0A2407463A780130303A092A03D804FB01210123F5E703B1059103223978224800F08AFE40B14023CBEB00000B
:4029800003FA00F0049B013718430490397806221B487E1C8DF8281000F078FE88B1194B33B9039B073323F007030833039314E003AB00932A46144B04A94046AFF30080C3
:4029C00007E003AB00932A460F4B04A9404600F043FAB0F1FF3F824603D0099B5344099342E7AB895B0601D4099801E04FF0FF301DB0BDE8F08F00BF4040000046400000FB
:402A00004A40000000000000712700004B1C70B50E46144602D14FF0FF3070BD9389CDB223F020039381536B526883B1A36B9A4207DA23685A1E226003F8016C6368013384
:402A40001FE0214600F0E0FD0028F2D0E3E72169236851B1994208D213F8011C8D4204D1013B0132236062600CE0E36304F1440363630323A3632346226403F8466F2360A1
:402A800001236360284670BD10B50C46496B69B104F14403994201D000F024FE236C00206063636013B1E36B236010BD23694FF0FF30236000236360A38943F02003A38115
:402AC00010BD00002DE9F04FDFF89C9207460D46CA46ADF5257D01930023469347939E4B0DF10C08A2939D4BDFF874B2CDF82081A3931478002C00F02781D9F800302344E8
:402B00005B7803F0080303F0FF01F3B16B68002B10DD2B68DAF800001978014449780C0710D5479901330131479169682B6001396960EBE7A39B2946384600929847009AC9
:402B40000028E6D0561C3246D3E7252C02F1010652D14391459153782A2B02BF1023961C43930A2231783446A1F13003092B06F1010605D8459B02FB0313303B4593F1E7EE
:402B80000322774800F082FD40B134460123CBEB000003FA00F0439B03434393661C2478672C16D8652C7FD2472C07D8452C7BD2002C00F0CB80252C1ED077E05B2C51D060
:402BC00002D8582C3ED071E0632C57D0642C3FD06CE0702C32D007D86E2C55D03AD8692C64D1002344933BE0752C31D0782C29D0732C5BD102233FE06B68002B0DDD2B6881
:402C00001A78944240F0A08001336A682B60479B013A01336A60479395E7A39B2946384698470028EBD04698002800F08F80AB8913F0400F18BF4FF0FF3089E0439B43F0A3
:402C400020034393439B43F400734393102302E00A2300E008236E2C449301DD04230BE0032309E03146404600F084FB0646439B43F040034393012349931BE0439B43F052
:402C8000400343930023F7E7439AD0063FF55BAF12F0010F019A479B02F104010191126814BF138013604EE70523E5E7032349930A2344936B68002B03DD439B590611D56D
:402CC00018E0A39B2946384698470028F5D0AAE7479A013247926A68013A002A6A6013DD01332B602B68DAF800101A780A4452781207EDD4499B022B0DDC01AB2A4643A9BC
:402D0000384600F0CFF919E0A39B2946384698470028E7D087E7042B06DC01AB2A4643A9384600F025FA09E00E4B002B3FF40BAF01AB2A4643A93846AFF30080012803D069
:402D400002287FF400AF6EE7469801E04FF0FF300DF5257DBDE8F08F0D2A0000892A000046400000000000006CC1FF1F2DE9F04791461F460A698B6806469342B8BF134622
:402D8000C9F8003091F843200C46DDF8208012B10133C9F800302368990642BFD9F800300233C9F80030256815F0060510D104F1190A07E00123524639463046C0470130CF
:402DC0001AD00135E368D9F800209B1A9D42F1DB94F843302268003318BF012392060FD5E118302081F843005A1C94F845102244023382F8431003E04FF0FF30BDE8F087B3
:402E000004F1430239463046C0470130F4D02268D9F80050E36802F00602042A08BF5D1B2269A3680CBF25EAE57500259342C4BF9B1AED184FF000091A344D4509D00123E4
:402E4000224639463046C0470130D5D009F10109F3E70020BDE8F0872DE9F04317460A7E85B06E2A984606460C460C9B01F1430E00F0AE8011D8632A22D009D8002A00F01C
:402E8000BB80582A40F0CA8081F84520834955E0642A1ED0692A1CD0C0E0732A00F0B08009D86F2A2ED0702A40F0B8800A6842F020020A603EE0752A24D0782A3AD0ADE010
:402EC0001A6801F14205111D1960136884F84230A8E021681A6811F0800F02D0111D196008E011F0400F02F10401196002D0B2F9003000E01368002B3CDA2D225B4284F811
:402F0000432037E021681A6811F0800F02D0111D196007E011F0400F02F10401196001D0138800E01368227E5C496F2A14BF0A2208221BE078225A4984F84520226818686A
:402F400012F0800F00F104051D6003D1550601D5038800E00368D00744BF42F0200222601BB9226822F0200222601022002084F8430001E049490A226568002DA56008DB18
:402F8000206820F0040020602BB9002D7DD175460CE0002B79D07546B3FBF2F002FB1033CB5C05F8013D03460028F5D1082A0BD12368DA0708D5236962689A42DEBF3023DE
:402FC00005F8013C05F1FF35C5EB0E0323612EE008681A6810F0800F496903D0101D1860136808E010F0400F02F104001860136801D0198000E0196000232361754616E0B8
:403000001A68111D1960156800216268284600F03DFB08B1401B6060636804E004F1420584F8422001232361002384F84330CDF800803B4603AA21463046FFF797FE013006
:4030400002D14FF0FF3026E023692A4639463046C0470130F5D023689B0710D5002504F1190907E001234A4639463046C0470130E7D00135E368039A9B1A9D42F2DBE06887
:40308000039B9842B8BF184605E00B7804F1420584F842308AE705B0BDE8F08351400000624000002DE9F84315468A6880460C4632B98A69002A0CBF01224FF0FF328A60BA
:4030C0002268DFF8A890D10658BF1A684FF000065EBF111D19601768A069F8B923680136DA065EBF2B681B783B702A686B6802F101022A60A26803F1FF3302F1FF326B60F1
:4031000058BF0137A260E2B1002BE5DCD4F880312946404698470028DED012E0012806D12B681A7863699B5C002BD7D119E0022807D12B68D9F800201B7813445B781B078D
:40314000CCD5236813F0100305D1E2680132E260A26902B13B70236900201E442661BDE8F883002EEDD1BDE8F88300BF6CC1FF1F2DE9F04F0C469A46724B87B083461646A4
:4031800093E8070003ABA76883E807006E4BA1696E4A04F11C09032918BF1A467B1EB3F5AE7F84BF40F25D13A360236888BF6FF4AE7543F4506323604B4600928CBF7F1945
:4031C00000274FF000083168019303AB53F828000222097800F05AFA019B002833D0B8F1010F0BD162682AB908226260226842F400722260226822F4A0620CE0B8F1020F39
:403200000AD1226802F4C061B1F5007F1BD11021616042F480722260A268511EA16092B132685D1C511C316012781A707368013B002B736006DCD4F880313146584698471B
:40324000002841D12B4608F10108B8F1030FBAD162680AB90A22626062683D496069891A019300F087F8019B4FF000081D46A36863B3316860690A78805C38B3302A22682B
:4032800008D1100506D508F1010857B10133013FA36006E022F4106222600B78013505F8013C7368013B002B736003DD33680133336005E0D4F8803131465846984728B953
:4032C000A368013BA360D2E74FF000082368D9050CD54D4508D915F8011C6F1ED4F87C313246584698473D464D4527D0226812F010021BD12A70636849465846009EB047E5
:403300002268DAF8003012F0200F07D1D20705D51A1DCAF800201B68188004E01A1DCAF800201B681860E3680133E3602369C9EB050545441D442561002000E0012007B0C5
:40334000BDE8F08F744000000D350000013400009040000038B5064C0023054608462360FDF72CF8431C02D1236803B12B6038BD20C2FF1F70B50B78441E5E2B13BF4A1CDC
:403380008A1C4B78002108BF012100F1FF0504F8011FAC42FBD10BB9501E70BD81F001041146C4540D784A1C2D2D06D05D2D0FD00DB12B46F4E7084670BD4E785D2EF8D069
:4033C000B342F6DC023101339E42C454FBDCE9E7104670BD30B582B1451E013915F8013F11F8014FA34206D1EC431444E04201D0002BF3D11C46181B30BD104630BD000038
:403400002DE9F0470F4680463F48D0F800903D4615F8014B09EB0400407800F0080000F0FF0608B12F46F2E72D2C03D1BD1C7C78012603E02B2C04BF7C78BD1C13B1102BDB
:403440000AD15BE0302C57D1287800F0DF0058284DD16C7810230235002E14BF4FF0004C6FF0004CBCFBF3FA0027384603FB1ACC09EB040E9EF801E01EF0040F01D0303C18
:403480000BE01EF0030E1BD0BEF1010F0CBF4FF0370E4FF0570ECEEB0404A34210DDB7F1FF3F0AD0504506D801D1644503DC03FB0040012701E04FF0FF3715F8014BD7E772
:4034C0007B1C0CD1002E4FF0220314BF4FF000406FF00040C8F800302AB9BDE8F08706B1404272B107B1691E1160BDE8F0873024002BB1D10823AFE70A23ADE7302CA3D06C
:40350000AAE7BDE8F08700BF6CC1FF1F2DE9F0470E4680463B48D0F80090354615F8014B09EB0400407800F0080000F0FF0708B12E46F2E72D2C03D1B51C7478012703E025
:403540002B2C04BF7478B51C13B1102B0AD153E0302C4FD1287800F0DF00582845D16C78102302354FF0FF3CBCFBF3FC03FB0CFA00266FEA0A0A304609EB040E9EF801E0EE
:403580001EF0040F01D0303C0BE01EF0030E1AD0BEF1010F0CBF4FF0370E4FF0570ECEEB0404A3420FDD002E08DB604506D801D1544503DC03FB0040012601E04FF0FF36DD
:4035C00015F8014BD8E7002E07DA2223C8F800304FF0FF302AB9BDE8F08707B1404272B106B1691E1160BDE8F0873024002BB9D10823B7E70A23B5E7302CABD0B2E7BDE82A
:40360000F08700BF6CC1FF1F2DE9F0410C46496B04F1440399421AD14FF48061FFF74AF818B94FF0FF30BDE8F0814FF48063A36394F84630606380F8FF3394F8453000F27B
:40364000FD30437094F844300370206012E0A66B77003A4600F092F805460028E1D000EB0608014632464046FDF762FAC4F800806563A7630020BDE8F0810000024B014679
:403680001868FFF717B800BF30C1FF1F10B5C9B202449042034605D01C7801308C42F8D1184610BD002010BD884210B501EB020301D8421E0BE09842FBD28118D21AD34228
:4036C00004D013F8014D01F8014DF8E710BD994204D011F8014B02F8014FF8E710BD70477047000038B50546002944D051F8043C0C1F002BB8BFE418FFF7F1FF1E4A1368B2
:40370000114613B96360146030E0A3420DD92268A018834201BF18685B681218226063600C6023E0A24203D813465A68002AF9D118681918A1420BD121680144581882422C
:40374000196013D110685268014419605A600DE002D90C232B6009E021686018824201BF106852680918216062605C602846BDE83840FFF7B5BF38BD94C1FF1FF8B50746A9
:4037800015460E4621B91146BDE8F840FEF792BF1AB9FFF7A7FF2846F8BD00F015F885420ED929463846FEF785FF044650B131462A46FDF7BDF931463846FFF793FF01E029
:4037C0003046F8BD2046F8BD51F8040C0028BEBF091851F8043CC0180438704770B54FF0FF0C4CF4E06C1CEA11541DBF1CEA135594EA0C0F95EA0C0F00F0DEF82C4481EA8C
:40380000030621EA4C5123EA4C5350EA013518BF52EA033541F4801143F4801338D0A0FB02CE4FF00005E1FB02E506F00042E0FB03E54FF00006E1FB03569CF0000F18BF7F
:403840004EF0010EA4F1FF04B6F5007F64F5407404D25FEA4E0E6D4146EB060642EAC62141EA55514FEAC52040EA5E504FEACE2EB4F1FD0C88BFBCF5E06F1ED8BEF1004FCE
:4038800008BF5FEA500E50F1000041EB045170BD06F0004646EA010140EA020081EA0301B4EB5C04C2BFD4EB0C0541EA045170BD41F480114FF0000E013C00F3AB8014F132
:4038C000360FDEBF002001F0004170BDC4F10004203C35DA0C341BDC04F11404C4F1200500FA05F320FA04F001FA05F240EA020001F0004221F0004110EBD37021FA04F62F
:4039000042EB06015EEA430E08BF20EAD37070BDC4F10C04C4F1200500FA04F320FA05F001FA04F240EA020001F0004110EBD37041F100015EEA430E08BF20EAD37070BD40
:40394000C4F1200500FA05F24EEA020E20FA04F301FA05F243EA020321FA04F001F0004121FA04F220EA020000EBD3705EEA430E08BF20EAD37070BD94F0000F0FD101F035
:403980000046400041EB010111F4801F08BF013CF7D041EA060195F0000F18BF704703F00046520043EB030313F4801F08BF013DF7D043EA0603704794EA0C0F0CEA13557B
:4039C00018BF95EA0C0F0CD050EA410618BF52EA4306D1D181EA030101F000414FF0000070BD50EA410606BF1046194652EA430619D094EA0C0F02D150EA013613D195EA45
:403A00000C0F05D152EA03361CBF104619460AD181EA030101F0004141F0FE4141F470014FF0000070BD41F0FE4141F4780170BD70B54FF0FF0C4CF4E06C1CEA11541DBF05
:403A40001CEA135594EA0C0F95EA0C0F00F0A7F8A4EB050481EA030E52EA03354FEA013100F088804FEA03334FF0805545EA131343EA12634FEA022245EA111545EA10655B
:403A80004FEA00260EF000419D4208BF964244F1FD0404F5407402D25B084FEA3202B61A65EB03055B084FEA32024FF480104FF4002CB6EB020E75EB030E22BFB61A75469B
:403AC00040EA0C005B084FEA3202B6EB020E75EB030E22BFB61A754640EA5C005B084FEA3202B6EB020E75EB030E22BFB61A754640EA9C005B084FEA3202B6EB020E75EBA7
:403B0000030E22BFB61A754640EADC0055EA060E18D04FEA051545EA16754FEA06164FEAC30343EA52734FEAC2025FEA1C1CC0D111F4801F0BD141EA00014FF000004FF03B
:403B4000004CB6E711F4801F04BF01430020B4F1FD0C88BFBCF5E06F3FF6AFAEB5EB030C04BFB6EB020C5FEA500C50F1000041EB045170BD0EF0004E4EEA113114EB5C0430
:403B8000C2BFD4EB0C0541EA045170BD41F480114FF0000E013C90E645EA060E8DE60CEA135594EA0C0F08BF95EA0C0F3FF43BAF94EA0C0F0AD150EA01347FF434AF95EA5E
:403BC0000C0F7FF425AF104619462CE795EA0C0F06D152EA03353FF4FDAE1046194622E750EA410618BF52EA43067FF4C5AE50EA41047FF40DAF52EA43057FF4EBAE12E720
:403C00004FF0FF3C06E000BF4FF0010C02E000BF4FF0010C4DF804CD4FEA410C7FEA6C5C4FEA430C18BF7FEA6C5C1BD001B050EA410C0CBF52EA430C91EA030F02BF90EA8E
:403C4000020F0020704710F1000F91EA030F58BF994208BF90422CBFD8176FEAE37040F0010070474FEA410C7FEA6C5C02D150EA013C07D14FEA430C7FEA6C5CD6D152EA51
:403C8000033CD3D05DF8040B704700BF8446104662468C461946634600E000BF01B5FFF7B7FF002848BF10F1000F01BD4DF808EDFFF7F4FF0CBF012000205DF808FB00BF62
:403CC0004DF808EDFFF7EAFF34BF012000205DF808FB00BF4DF808EDFFF7E0FF94BF012000205DF808FB00BF4DF808EDFFF7CEFF94BF012000205DF808FB00BF4DF808EDC4
:403D0000FFF7C4FF34BF012000205DF808FB00BF4FEA410212F5001215D211D56FF47873B3EB625212D94FEAC12343F0004343EA505311F0004F23FA02F018BF40427047C0
:403D40004FF00000704750EA013005D111F0004008BF6FF0004070474FF00000704700BF4A0011D212F5001211D20DD56FF47873B3EB62520ED44FEAC12343F0004343EAAC
:403D8000505323FA02F070474FF00000704750EA013002D14FF0FF3070474FF0000070470000000000000000496E697469616C697A696E672E2E2E0D0A000000476574742B
:403DC000696E672047505320446174612E2E2E0D0A00000024504D544B3331342C302C312C302C312C302C302C302C302C302C302C302C302C302C302C302C302C302C30CE
:403E00002C302A32380D0A0047505320646174613A0D0A0024474E524D432C255B5E2C5D2C252A632C255B5E2C5D2C252A632C255B5E2C5D2C252A632C255B5E2C5D2C25B4
:403E40002A632C252A632C252A632C252A632C252A632C252A632C252A632C252A632C252A6300004C61743A20252E36662C204C6F6E3A20252E36660D0A000000510040F5
:403E80001000205100401000405100403000C05100401000F0510040100000000140000280020140800D00140140800200170140000500400140000A004C0140000200500D
:403EC0000140200000020140CC0500488000801601404C06004880004300000034000000CEFBFFFFCB03000001000000000000006E6600696E69747900616E003500000082
:403F0000CEFBFFFFCB0300000100000000000000BC89D897B2D29C3C33A7A8D523F649393DA7F444FD0FA5329D978CCF08BA5B25436FAC6428066811504F534958002E00EF
:403F4000000000000000F03F000000000000244000000000000059400000000000408F40000000000088C34000000000006AF8400000000080842E4100000000D0126341E0
:403F80000000000084D797410000000065CDCD41000000205FA00242000000E876483742000000A2941A6D42000040E59C30A2420000901EC4BCD64200003426F56B0C43E9
:403FC0000080E03779C3414300A0D8855734764300C84E676DC1AB43003D9160E458E143408CB5781DAF154450EFE2D6E41A4B4492D54D06CFF08044F64AE1C7022DB54413
:40400000B49DD9794378EA4405000000190000007D000000000000000080E03779C34143176E05B5B5B89346F5F93FE9034F384D321D30F94877825A3CBF737FDD4F1575DA
:40404000232D302B2000686C4C00656667454647003031323334353637383941424344454600303132333435363738396162636465660000924000009540000098400000CE
:40408000412D46612D66383930313233343536375D002B2D003030007858000020202020202020202028282828282020202020202020202020202020202020208810101086
:4040C00010101010101010101010101004040404040404040404101010101010104141414141410101010101010101010101010101010101010101101010101010424242A8
:404100004242420202020202020202020202020202020202020202101010102000000000000000000000000000000000000000000000000000000000000000000000000031
:40414000000000000000000000000000000000000000000000000000000000000000000000000000000000000000000000000000000000000000000000000000000000003F
:4041800000000000000000000000000000000000000000000000000000000000000000000000000000000000000000000000000000000000000000000000000000000000FF
:4041C000000000000000000000000000000000000000000000000000000000000000000000000000000000000000000000000000000000000000000000000000F8B500BF53
:40420000F8BC08BC9E4670474D00000039040000F8B500BFF8BC08BC9E4670472900000030420000C8C0FF1FA8000000B80000000000000028C2FF1F000000009C410000DC
:40424000BC410000DC41000000000000000000000000000000000000D83E00000000000000000000000000000000000000000000000000000000000000000000000000000E
:40428000000000000000000000000000000000000000000000000000D0C0FF1F3E3F00004540000045400000454000004540000045400000454000004540000045400000AB
:4042C00045400000FFFFFFFFFFFFFFFFFFFFFFFFFFFF00009B400000000000000000000000000000000000000000000000000000000000000000000000000000000000006C
:40430000000000000000000000000000000000000000000000000000000000000000000000000000000000000000000000000000000000000000000000000000000000007D
:40434000000000000000000000000000000000000000000000000000000000000000000000000000000000000000000000000000000000000000000000000000000000003D
:4043800000000000000000000000000000000000000000000000000000000000000000000000000000000000000000000000000000000000000000000000000000000000FD
:4043C00000000000000000000000000000000000000000000000000000000000000000000000000000000000000000000000000000000000000000000000000000000000BD
:020000040001F9
:0200000480007A
:400000000352004003640040036500400B0201403803014060040140450501406B06014047070140531401404B1501402316014047170140024201400143014003480140A9
:400040000C49014005500140181019101C2182768338870F8476860F873886018A019202A602B401B602BE50D418D804DB04DF010008020805040608070209200BC80C4065
:400080000D220E221020158016801728180119101C801D021E281F40252026092E022F15310C360137283C823D28451F47804C204F4054045B015E08600161106C016E01D9
:4000C0006F1474017728811082808612C0E6C2F8C4F4CAF0CCE0CEF0D0F0D210D641D80C02A3050907100B400D141061128E145C151C16831742186119201A961B031D10DE
:4001000022082340261C286029502A802B0C2D4C2F11301A320F332034F0351F37403A2A3F444021410545E046CB480E49FF4AFF4BFF4EF04F44500C580459045A045F01EF
:4001400066C06A406B0280098103821085D088208A038B038DD08E409102930494509580960C971098149B039F03A010A120A340A501A640A704A81CA903AA42AB08AC4C76
:40018000AD03AE11B040B10CB21FB3C0B530B620B703B928BE41BF05D804D904DC01DF0101020410060107400A640C24108011101308140A1501161019141A641B011C1034
:4001C0001D801E80226424082608278929122B012C012D022E122F10308031043220344035043610370238A839103D223E443F40420649014B4050507820791081408210D5
:4002000084018588900292019580972298409B149E089F83A121A210A518C0D8C26EC4FECAFDCCFECEFED00CD208000401CF03300401054307BC08010C010D700F8C112A9C
:40024000131515731601178C180819731B8C1E0224012515272A28013203340835C03604373F3B083E504023410145E046B047CE483A49FF4AFF4BFF4EF04F44500C580426
:4002800059045A045D015F0166C06A406B02840385A886FC875488E389CD8A1C8B308C1F8DC08EE08F3090E0921C9301944895CD9625973099559BA8A492A50DA625A7F043
:4002C000A8E3AA1CAB02AC25AD3DAEDAAFC0B103B4FFB5FCBE10C006C604C9FFCA0FCBFFCC40CD20CEF0CF05D008D401D804D904DA04DB04DC10DF01E040E1A8E240E32025
:4003000000A0018803080501060A07100A600B800E120F08111012261520170419101D801E14222223042518270229982F1032123308371639103B843C043E033F404004A6
:4003400041304406461049024A084C014F415080542056015705582059055A8090029289950196109722982099019B149C0E9D029E199F42A120A248A4A0A518C0F7C2ECB6
:40038000C467CA4ECCE7CEDED070D204D60F020404BC05010642070209010A180B020C3C0D010EC10F021404171018101B041CFF1D03230824E726182710280829012B0221
:4003C0002EC32F083058310332983310341F3508362037043A223E403F1456025710580459045B045C115D105F01816083808BA39161938E955C978399619B969F1CA308EC
:40040000AA01B001B30FB5F0B71ABBA8C003C540C9FFCA0FCBFFCC40CD20CEF0CF05D008D804D904DA04DC10DD01DF01E040E1A8E240E320004203280604070409800A24E7
:40044000100812221608184019881B201F0120062101220626182701290A2A402B082D013080310432103618374139543F2247084D015610571059806508671068D06954F3
:400480006A406B0470087118720473408212860887108A84944495039660977299069A409B489D109E1E9F01A180A220A309A450A508A698A730B110B301C00FC207C44701
:4004C000CA8FCCFECEAED040D60800E0021C04E3061C082409020A490B040C920E49110D1449150816B617011803190D1AFC1C1F1EE024E3261C3103350C36FF39223E4002
:400500003F105401580459045B045C105D105F010040032804020608071209800B400D200E1112201704190A1B081E02200221942221274829182A02318832023320340AE7
:4005400036183701384039223B043F204115480149044B1052405A025D105E845F016004628078047A1086049002921D93059501966097229B169C0E9D089E1C9F40A12052
:40058000A242A301A450A601A984C0F7C2E9C424CA07CCEFCE2FD007D20CD6F1D80C8710E640932087049320E61003200F4053106708832087409328C010C220D420D880AD
:4005C000E460000308010A0310031A03004000007FBF00000100000302A70018733C0C821F10600000080C005C002300003C63810804000004400018030000040F1F2C8063
:4006000010604C0000280A020000100042030500010C000E11FFFFFF62A0F0410C00000000000212040404040000000100000000000040020010301000101012000000001F
:400640000000000000000000000000000000000F010A0480020F0030013C0403020F0040001000000030000F053F000000050080050000300020000000000000040303C0CF
:40068000003C00000A0000A00000000424050600030C0E0005FFFFFF62A0F0410C0000001800000004040404111100010000000000004002001030100010101200000000B4
:4006C000000000000000000000000000000B0B000000000012002192920012000000000000000000000000000000000000000000000000000000000000000000000000007B
:4007000000000000000000000000000000000000000000000000000000000000000000000000000000000000000000000000000000000000000000000000000000000000B9
:400740000000000000000000000000000000000000000000000000000000000000000000000000000000000000000000000000000000000000000000000000000000000079
:400780000000000000000000000000000000000000000000000000000000000000000000000000000000000000000000000000000000000000000000000000000000000039
:4007C00000000000000000000000000000000000000000000000000000000000000000000000000000000000000000000000000000000000000000000000000000000000F9
:0200000490006A
:0400000000004005B7
:0200000490105A
:04000000BC90ACAF55
:0200000490303A
:020000001F518E
:0200000490402A
:4000000000000000000000000000000000000000000000000000000000000000000000000000000000000000000000000000000000000000000000000000000000000000C0
:400040000000000000000000000000000000000000000000000000000000000000000000000000000000000000000000000000000000000000000000000000000000000080
:0200000490501A
:0C00000000012E15906900012E30AFBAEF
:00000001FF