:4000000000400020110000008D0400008D04000008B5044B1A6803F53F5302331A6000F055FA00BFFA46004010B5054C237833B9044B13B10448AFF300800123237010BD46
:4000400080C1FF1F0000000078370000084B10B51BB108490848AFF300800848036803B910BD074B002BFBD0BDE81040184700BF0000000084C1FF1F78370000C8C0FF1F74
:400080000000000038B5314C257800F0B5FA304A50552378D25C0A2A53D101332C480022C25422702B4901F0EBFC2B4B18602B4900F0AAFE002847D1264D294601F0E0FCB3
:4000C0000146254C2060264800F0A8FE2946002001F0D6FC2060234900F096FE002833D1294601F0CDFC206000F026FE00F0D4FD1D4B18602946002001F0C2FC2060027840
:400100001A4B1A702946002001F0BAFC206000F013FE00F0C1FD164B18602946002001F0AFFC20600278134B1A702946002001F0A7FC206000F000FE00F0AEFD0E4B186088
:4001400038BD0133014A137038BD00BF9CC1FF1FD4C1FF1F8037000064C2FF1F84370000C8C1FF1F8C3700005CC2FF1F14C2FF1F18C2FF1F15C2FF1F60C2FF1F80B58AB0BA
:4001800062B600F08BFB012000F0C8FA00F026FA00F098FA1F4800F0A9FB1F4800F0ACFA1E4800F0A9FA1E4800F048FA1D4800F0A3FA00F00DFB1C4BA3FB00239B0C1B4AA5
:4001C00002FB1303002BF4D1194B186800F010FD06460F46174C184B0893184B186800F007FDCDE90601164B1B780493154B186800F0FEFCCDE90201134B1B78009332467B
:400200003B461249204600F0DBFD204600F074FACFE700BF8500000090370000A4370000BC370000F037000083DE1B4340420F005CC2FF1F1CC2FF1FC8C1FF1F60C2FF1FCB
:4002400015C2FF1F18C2FF1F14C2FF1FFC370000FEE700BFF0B40022174611E050F82760F3B226F0FF0608E001EB420511F812406D78A5550132013BDBB2002BF4D10137AA
:40028000142FEBD9F0BC7047064B1B78DBB203F00701054A11701B09013213704422034B1A707047CF0100496E5800407658004008B50A46002100F07AFD08BD38B54FF412
:4002C0009C73274A138019250232157002321380244B1D70022203F27A231A7008224FF040231A70042203F500731A701E4B1B78DBB21E4A137040F608721D4B1A8041F227
:400300005122023B1A8000240CE01A4B1B7803F0010343EA440404F003044FF4F07000F0F3FA013D0DB1032CEFD115B90320FFF78FFF114B4FF480721A8007221A70002224
:400340000E490A704820023108701A700222033B1A700B4A137843F00303137038BD00BF804000408640004089010049A1460040224200402542004004400040064000407E
:40038000A243004008B500F007FD08BD38B572B6314A137843F00403137000240CE02F4D630019194A0011462A44084691882858FFF77EFF0134E4B20B2CF0D900240CE065
:4003C0002648A20011194B000344B3F85020D96C986CFFF7D7FF0134E4B2012CF0D920494FF09040FFF736FF1E4A137843F0020313701032137843F0020313701A4C237866
:4004000043F040032370A2F58632513A137843F010031370082215491548FFF7B3FF0A2214491548FFF7AEFF144A137843F008031370134D61232B70FFF740FF81232B70D2
:400440000122104B1A70FFF71FFF0E2221460E48FFF798FF38BD00BFE84600402C3800005400004803500140A0430040D006004812510040D80600483051004022430040C0
:400480000048004004000840B043004008B500F057FC03680C2B00D1FEE7FEE708B5094B1A681044084BC31A802B02DC054B186005E000F045FC0C2303604FF0FF32104622
:4004C00008BD00BFCCC0FF1F70C2FF1F08B5104E104D16E029686B68AC68002204E051F8040B43F8040B0432A242F8D1E868002203E0002143F8041B04328242F9D1103534
:40050000013E002EE6D100F021FCFFF737FEFEE701000000483A000008B5104A104B1A60104A136843F40073136000230AE0032B03D80D4A52F8231000E00C490C4A42F86A
:40054000231001332F2BF2D90A4B1A780A4B1A70074A0A4B1A60FFF719FF08BD0004FA050CED00E014ED00E0000000008D04000000C0FF1FBC760040C0C0FF1F08ED00E025
:400580007622074B1A70202201331A700E22603B1A708F2210331A70002253331A7070478364004010B500F0B7F904460A4A137843F0200313700132137843F010031370F6
:4005C0000332137843F01003137000F0B3F8204600F0A6F910BD00BF9364004008B5054B1B7823B9FFF7CCFF0122024B1A70FFF7D9FF08BD9DC1FF1F084B1B78DBB213F063
:40060000200F06D0064A1078C0B213F01E0F02D17047002070470020704700BF6464004043640040034B1B7813F0040FFAD1024B18707047676400404764004038B5074BD2
:400640001B782BB938BDFFF7EDFF0134A4B201E005460024285D0028F5D138BD9DC1FF1F7622084B1A702022A3F582731A700E22603B1A708F2210331A70002203F253134F
:400680001A7070478665004010B500F045F904460B4A137843F020031370A2F58272137843F01003137002F20312137843F01003137000F04DF8204600F032F910BD00BF5A
:4006C0009665004008B5054B1B7823B9FFF7C8FF0122024B1A70FFF7D7FF08BD9FC1FF1F034B1B7813F0040FFAD1024B18707047656500404664004038B5074B1B782BB985
:4007000038BDFFF7EDFF0134A4B201E005460024285D0028F5D138BD9FC1FF1F044A137803F07F03C001C0B218431070704700BF30510040054A137843F0010313701032B8
:40074000137843F001031370704700BFA2430040054A137843F0020313701032137843F002031370704700BFA243004001BE704770B504460E46074B1D680F2802D900209F
:40078000FFF7F4FF04F00F0455F8240045F8246070BD00BF08ED00E0024A136843F002031360704710E000E008B5FFF7F5FF034A136843F00103136008BD00BF10E000E0F0
:4007C00020F07F40014B1860704700BF14E000E0024B186820F07F40704700BF18E000E0012805D1054A136843F0040313607047024A136823F004031360704710E000E02A
:40080000024B1868C0F30040704700BF10E000E010B5FFF7F5FF01280BD107E0054B03EB84035B6803B19847013400E00024042CF4D910BDA4C1FF1F0022014B1A607047D7
:4008400018E000E008B5002305E00F4A02EB8302002151600133042BF7D90C490F20FFF787FF0120FFF7BCFF094BDB680948A0FB03308009FFF7A4FFFFF7DEFF4FF4004209
:40088000054B1A6008BD00BFA4C1FF1F11080000D0C0FF1FD34D621000E100E008B5054B9B6923B9FFF7CEFF0122024B9A61FFF77BFF08BDA4C1FF1F014B1B681864704778
:4008C00008ED00E04001C0B2014B1870704700BF00E400E00122014B1A60704700E100E00122014B1A60704780E100E010B50446FFF7F6FF2046FFF7DFFF0720FFF7E2FFEE
:40090000FFF7E8FF10BD00BF0230800803D000BF01380046FCD17047EFF3108072B6704780F31088704700BF81F0004102E000BF83F0004330B54FEA41044FEA430594EAC2
:40094000050F08BF90EA020F1FBF54EA000C55EA020C7FEA645C7FEA655C00F0E2804FEA5454D4EB5555B8BF6D420CDD2C4480EA020281EA030382EA000083EA010180EA0A
:40098000020281EA0303362D88BF30BD11F0004F4FEA01314FF4801C4CEA113102D0404261EB410113F0004F4FEA03334CEA133302D0524263EB430394EA050F00F0A78057
:4009C000A4F10104D5F1200E0DDB02FA0EFC22FA05F2801841F1000103FA0EF2801843FA05F359410EE0A5F120050EF1200E012A03FA0EFC28BF4CF0020C43FA05F3C018F3
:400A000051EBE37101F0004507D54FF0000EDCF1000C7EEB00006EEB0101B1F5801F1BD3B1F5001F0CD349085FEA30004FEA3C0C04F101044FEA445212F5800F80F09A801F
:400A4000BCF1004F08BF5FEA500C50F1000041EB045141EA050130BD5FEA4C0C404141EB010111F4801FA4F10104E9D191F0000F04BF01460020B1FA81F308BF2033A3F15F
:400A80000B03B3F120020CDA0C3208DD02F1140CC2F10C0201FA0CF021FA02F10CE002F11402D8BFC2F1200C01FA02F120FA0CFCDCBF41EA0C019040E41AA2BF01EB0451C2
:400AC000294330BD6FEA04041F3C1CDA0C340EDC04F11404C4F1200220FA04F001FA02F340EA030021FA04F345EA030130BDC4F10C04C4F1200220FA02F001FA04F340EABC
:400B00000300294630BD21FA04F0294630BD94F0000F83F4801306BF81F480110134013D4EE77FEA645C18BF7FEA655C29D094EA050F08BF90EA020F05D054EA000C04BFF2
:400B40001946104630BD91EA030F1EBF0021002030BD5FEA545C05D14000494128BF41F0004130BD14F580043CBF01F5801130BD01F0004545F0FE4141F470014FF00000D1
:400B800030BD7FEA645C1ABF194610467FEA655C1CBF0B46024650EA013406BF52EA033591EA030F41F4002130BD00BF90F0000F04BF0021704730B54FF4806404F132045B
:400BC0004FF000054FF0000150E700BF90F0000F04BF0021704730B54FF4806404F1320410F0004548BF40424FF000013EE700BF42004FEAE2014FEA31014FEA02701FBFD6
:400C000012F07F4393F07F4F81F06051704792F0000F14BF93F07F4F704730B54FF4607401F0004521F0004120E700BF50EA010208BF704730B54FF000050AE050EA010205
:400C400008BF704730B511F0004502D5404261EB41014FF4806404F132045FEA915C3FF4DCAE4FF003025FEADC0C18BF03325FEADC0C18BF033202EBDC02C2F1200300FA46
:400C800003FC20FA02F001FA03FE40EA0E0021FA02F11444C1E600BF4FEA4102B2F1E04324BFB3F5001CDCF1FE5C0DD901F0004C4FEAC0024CEA5070B2F1004F40EB830065
:400CC00008BF20F00100704711F0804F21D113F13872BCBF01F00040704741F480114FEA5252C2F11802C2F1200C10FA0CF320FA02F018BF40F001004FEAC1234FEAD323DA
:400D000003FA0CFC40EA0C0023FA02F34FEA4303CCE77FEA625307D150EA01331EBF4FF0FE4040F44000704701F0004040F0FE4040F40000704700BF002100F099BE00009A
:400D4000014B1868704700BF40C1FF1F0E4B70B51E460E4C0025E41AA410A54204D056F8253098470135F8E702F05CFE084B094C1E46E41AA4100025A54204D056F8253020
:400D800098470135F8E770BD303A0000303A0000303A0000383A000010B5431E0A44914204D011F8014B03F8014FF8E710BD03460244934202D003F8011BFAE77047000016
:400DC0000EB400B54FF402719CB0ADF814106FF00041049107914FF6FF711DAB02900690084853F8042BADF81610006802A9019301F0C8FE029B00221A701CB05DF804EBF3
:400E000003B0704740C1FF1F10F8012B11F8013B012A28BF9A42F7D0D01A7047034611F8012B03F8012B002AF9D170472DE9F0410F46904601F070FC04460D46B8F1000FE6
:400E400011D0C7F30A53C3F16B03002B0BDD1B0503F17F55002405F5401522462B4602F0A9F9BDE8F08120462946BDE8F08100002DE9F04F82460C469DB00023139218934D
:400E80004FF000084FF000091791179B1A780D2A05D8092A13D2002A00F0AD8112E02B2A04D02D2A04D0202A0CD108E0002200E001220C925A1C17925B782BB99BE10133A5
:400EC0001793E2E700230C93179D2B78302B5CD16B78582B01D0782B4CD10C9BA84A019318AB009317A919AB504600F071FE10F00706044600F08585062E05D10135002337
:400F000017950C9300F07DBD189A3AB135211AA801F0E9FC1899504601F06DF9062E22D8DFE806F0040D08181D0D04004FF00009C84618E0DDF86880DDF86C9013E01B9B44
:400F4000199A23F4801302F23342DDF8688043EA025908E0DFF82C924FF0000803E06FF000494FF0FF38210740F14B8549F0004900F047BD179B5A1C17925B78302BF9D03A
:400F8000002B00F03E85012300E000230593179B0A22069300239B4602930493179D2E78A6F13003D9B2092911D8BBF1080FD5BF0499029902FB013302FB013305F1010536
:400FC000D4BF049302930BF1010B1795E6E7504601F0D0F80768504601F0CCF8006802F071F839460246284602F074F8074628B1002033465D46024601465AE0504601F0A0
:40100000B9F8006802F05EF8179B1A1817921B5CBBF1000F45D15846302B05D1179B01305A1C17925B78F7E7A3F13102082A46D8179A0692024600200546303B00F1010187
:4010400029D00A44294605EB000C0A2661450FD0013101F1FF3EBEF1080F03DC049F77430497F3E71029DEBF029F77430297EDE72844082800F1010505DC04980A2101FB5C
:401080000033049306E0102DDFBF02980A2101FB003302930021179B581C17905B78084602E05D4638463A46A3F130010929C4D90121652B01D0452B4FD16DB904E0652B49
:4010C00040F0AD840022012128B9059B002B00F09280054600E00025179C631C179363782B2B06D02D2B02D00026039606E0012300E000230393A31C1793A378A3F1300690
:40110000092E29D8302B04D1179B5E1C17965B78F8E7A3F13106082E1FD8A3F1300E179B1F46179B5E1C17965B78A3F1300CBCF1090F05D80A2606FB0E3EAEF1300EF0E78C
:40114000F61B082E44F61F6602DC7645A8BF7646039F1FB1764201E017940026002D52D1002840F04E84059A002A40F04A84002941D14E2B20D007DC492B0AD03BE000BFE1
:40118000AC3800000000F07F692B02D06E2B13D031E0AA4917A800F04CFF60B3179BA849013B17A8179300F044FF10B9179B01331793DFF8A8921AE0A24917A800F039FF38
:4011C000C8B1179B1B78282B0FD11AAA9E4917A800F042FF052808D11B9BDDF8688043F0FF4949F4E00900F00CBCDFF874924FF0000800F006BC139B1794002B00F00C84B7
:4012000000230C93FFE32C46BBF1000F08BFAB460498102DA8BF1024B71AFFF7C7FC092C8046894613DD894B03EBC40353E9122301F0C0FF804602988946FFF7B7FC0246A3
:401240000B4640464946FFF775FB804689460F2D33DC002F00F0D58322DD162F07DC7B4D424605EBC7014B46D1E9000113E0C5F125039F4221DC754CC5F10F0504EBC501E1
:401280007D1B4246D1E900014B4604EBC50401F091FFD4E9002301F08DFF80468946B0E317F1160F09DB694D4046A5EBC703D3E90023494602F0A8F8EFE72C1B3C44002C94
:4012C0005DDD14F00F010AD0604B424603EBC101D1E900014B4601F06DFF8046894634F00F0400F0C180B4F59A7F0FDD4FF0000BCDF808B0CDF814B0CDF810B02223CAF8B3
:401300000030DFF858914FF0000889E14046494600234F4E24110293012C0CDDE20704D5D6E9002301F046FF0123029A6410013202920836F0E70BB180468946444B029AF1
:40134000A9F1547903EBC201D1E9000142464B4601F030FF21F0004389460A461B0D3D491B058B428046C1D8A1F580118B4286BFDFF8F0904FF0FF3802F1547974E073D097
:40138000644214F00F020AD0304B404603EBC2034946D3E9002302F037F880468946241162D01F2C08DD4FF0000BCDF808B0CDF814B0CDF810B02CE14046494614F0100F0F
:4013C0000CBF00236A23244E03930023002C09DDE20704D5D6E9002301F0ECFE012364100836F3E70BB180468946039BEBB1C9F30A53C3F16B03002B494616DD1F2B0EDD5E
:40140000342BDEBF203B4FF0FF3202FA03F34FF00008CCBF4FF05C7903EA010905E04FF0FF3202FA03F303EA0808002200234046494602F027F90028B5D117E0A0380000E9
:40144000A3380000A93800008C380000F0380000C83900000000A07CC03800000000F07F0000F8FFFFFFEF7F00230393049B5A46009306992B46504600F00FFF05900028F1
:401480003FF434AF002FC7F10003A8BF00230D934FF0000B27EAE7731293CDF808B0059B5046596800F072FE049000283FF426AF059B0C301A6903F10C0102329200FFF7F4
:4014C0006BFC1AAB019319AB009342464B465046CDE9088901F091F9189000283FF40EAF0121504600F064FF029000283FF406AF199B0399002BACBF0D9A129A1A9CACBF9D
:40150000D618D21AA3EB01032344B14903F1FF33ACBF129A0D9E8B42C4F1360480F28580C91A1F29C8BFAB4D4FF00107D4BF07FA01F3ED1AA4EB0104D9BF0793002507FA57
:4015400005F507973719039BBE4214441C443346A8BF3B46A342A8BF2346002BC2BFFF1AE41AF61A0D9B002B63D1002F7ADC129B002B40F08180002C00F38880002E00F367
:401580008F80049A1899504601F067F8834600283FF4B4AEC3680024C4600299069301F040F8A04280F28B80069B002B40F00282B8F1000F40F0FE81C9F31303002B40F01E
:4015C000F98129F000431B0D1B05B3F1D66F40F2F181DBF81430002B6CD059460122504600F0CEFF0299834601F01BF8002840F3E18129F00043039A1B0D1B05002A00F02D
:401600008D80B3F1D66F00F38980B3F15C7F00F3D38122234FF000084FF00009CAF80030059B002B40F0D981EBE101230025079388E71A460299504600F054FF029000282B
:401640003FF45CAE0146189A504600F0BAFE069000283FF453AE1899504600F0CCFD069B189382E73A461899504600F089FF189000287FF47CAF41E6129A0499504600F0AC
:4016800031FF049000287FF476AF37E622460499504600F075FF049000287FF46FAF2DE632460299504600F06BFF029000287FF468AF23E6DBF81030012B8EDC7AE161D1A4
:4016C000069AC9F3130322B343494A468B422ED1039B414663B1414B1340B3F1D46F07D81B0DC3F16B034FF0FF3000FA03F301E04FF0FF338B421AD139498A4202D10133D6
:401700003FF4FCAD354B4FF00008134003F5801950E163B9B8F1000F09D16AE7A3F580136FEA13594FF0FF386FEA095942E115B115EA090F02E0079B13EA080F00F03A818E
:40174000069B039A4046494653B1FFF76FFB02460B46DDE90801FFF7EDF88046894629E1FFF764FB02460B46DDE90801FFF7E0F8002200238046894601F084FF00287FF45C
:4017800048AF17E10299584601F085F800224FF0804306460F4601F089FF00283FD0069B13B100260F4F10E0B8F1000F03D1C9F313033BB91AE0B8F1010F03D1B9F1000FB3
:4017C0003FF427AF084F00260024064D3CE000BF02FCFFFFE2FBFFFFFFFF0F000000F07FFFFFEF7F0000F03F0000F0BF00229A4B3046394601F050FF40B90022974B3046C5
:40180000394601F0D7FC04460D4601E0069C934D05F1004314941593DDE9146714E08F4B00223046394601F0C5FC069B04460D4623B901F100430E900F9303E002460B46F9
:40184000CDE90E23DDE90E6729F000431B0D1B050793079A824B9A422BD1DDE90823A9F1547940464946CDE90A2300F055FF02460B463046394601F09DFC42464B46FFF707
:4018800059F821F000431B0D764A1B05934280460CD9754B0B9A9A4203D10A9B01333FF42DADDFF8C4914FF0FF3872E001F1547939E0039B3BB3079BB3F1D46F23D85EA323
:4018C000D3E900232046294601F0F0FEB8B12946204601F031FF002808BF0120FFF766F9069B04460D4623B901F100431090119303E002460B46CDE91023DDE91067079ABB
:4019000007F1D6639F1ADDE9080100F005FF02460B463046394601F04DFCDDE90823FFF709F880468946039B9BBB29F000431B0D079A1B059A424E462BD12946204601F04A
:40194000D3FEFFF743F90B46024629462046FEF7EFFF069B04460D462BB9B8F1000F02D1C9F313067EB136A3D3E900232046294601F092FE88BB34A3D3E900232046294686
:4019800001F0A8FE04E032A3D3E9002301F084FE18BB1899504600F02EFC0499504600F02AFC0299504600F026FC5946504600F022FC74E5039B83B12C4B40460B93002399
:4019C0000A934946DDE90A2301F0F4FB8046894619B910B92223CAF800301899504600F00AFC0499504600F006FC0299504600F002FC0599504600F0FEFB5946504600F0BE
:401A0000FAFB139B13B1179B139A13600C9B1BB1424609F1004307E042464B4604E000252A460121FFF747BB104619461DB0BDE8F08F00BFAFF300800000C0FFFFFFDF413E
:401A40009535A094FFFFDF3F35E5AF350000E03F9535A094FFFFCF3F0000F03F0000E03F0000E07FFFFF9F7CFFFFEF7F00005039024B0A4601461868FFF7FAB940C1FF1F3E
:401A8000174B2DE9F0411D680646AC6D0F46FCB9502000F073FBA8658460AB6D046044601C61DC60AB6D9C615C61AB6DDC629C62AB6D5C631C63AB6DDC639C63AB6D5C6447
:401AC0001C64AB6DDC649C64AB6D1C77AB6D5C62AA6D39463046BDE8F041012300F002B840C1FF1FF0B548B9106838B9F0BD17F8016B5EB1B542FAD12BB1204604460F46D5
:401B000014F8015BF3E714600370F0BD4DB915602846F0BD17F8016BB54207D0002EF9D11C4623460F4613F8015BF3E715B10021217000E02B461360F0BDF0B506694B113E
:401B4000B34200F1140527DA11F01F0105EB860605EB830201D1294616E0141D55F823202B46C1F1200ECA40B44209D2276807FA0EF73A4343F8042B54F8042BCA40F3E754
:401B80001A6052B1043308E0B2420B4605D252F8043B41F8043BF7E72B465B1B9B10036103B94361F0BDA0F13003092B01D820380AE0A0F16103052B01D8473804E0A0F186
:401BC0004103052B02D82738C0B27047002070472DE9F04F8BB08A4690460693029000F0C9FA03684FF0000B1846039301F06AFA039B0190034413F8013C0793DAF80030CC
:401C000002331F4613F8010B302802D10BF1010BF7E7FFF7C8FF0446E0B9019A0399384601F058FA002834D1019BF85CFE18FFF7BAFF80B3334618781F46302803F1010377
:401C4000F9D0FFF7B0FFB0FA80F534466D094FF0010B01E000252C463A46164630780132FFF7A1FF0028F8D1019A0399304601F031FA50B954B9019BF418224616463078F3
:401C80000132FFF790FF0028F8D134B1A41BA40003E03E4600E0044601253378502B01D0702B2AD173782B2B08D02D2B03D0711C4FF0000905E04FF0010901E04FF000097F
:401CC000B11C0878FFF76FFF431EDBB2182B14D8A0F1100211F8010FFFF765FF431EDBB2182B04D80A2303FB0202103AF2E7B9F1000F00D05242144400E03146CAF8001003
:401D00002DB1BBF1000F14BF002006207CE12946F31B013B072B02DD01315B10FAE7029800F034FA4FF000090546CB46019B00F1140AC3F10103CDF810A00893B7422FD283
:401D4000731E0593079A16F8013C93420BD0BBF1200F16D1049BC3F8009004334FF000090493CB460DE0059B089A13449F42EED81846019A0399099301F0ACF9099B68B11A
:401D8000E5E716F8010CFFF70EFF00F00F0000FA0BF0059B49EA00090BF1040B1E46CDE7049840F8049BCAEB0000801028614701484600F0B0FAD8F80060381AB04226DD1E
:401DC000871B3946284600F0A8FDC8B17B1E591103F01F024FF001095AF8211009FA02F20A420ED04B4502DC4FF0020909E0B91E284600F092FD0028F6D04FF0030900E0C4
:401E0000814639462846FFF798FE3C440CE009DA371A29463A46029800F0B2FB0546E41B00F1140A4FF00009D8F808309C4208DD0298294600F0DFF9149A00231360A32058
:401E4000E2E0D8F80400844253DA041BA6422EDCD8F80C30022B1AD0032B1CD0012B1DD1A6421BD1012E0BDCD8F80430069A6220136001232B61CAF80030149B1D60C3E07D
:401E8000711E284600F049FD0028EDD106E0159B002BE9D002E0159B002BE5D10298294600F0A9F9149A002313605020ACE0671EB9F1000F06D13FB13946284600F02DFD35
:401EC000814601E04FF001097A11012307F01F0703FA07F75AF8223021461F42284618BF49F00209361BFFF728FE0227D8F8044000E00127B9F1000F00F08180D8F80C30CD
:401F0000022B0ED0032B10D0012B76D119F0020F73D0DAF8000049EA000919F0010F07D16BE0159BC3F101031593159B002B64D0D5F810A005F114034FEA8A0903EB090101
:401F400000201A68B2F1FF3F02D001321A6020E043F8040B9942F4D8AB689A4512DB69680298013100F012F983462A6905F10C01023292000C30FEF70FFF2946029800F09A
:401F80003AF95D462B695A1C2A6105EB830301225A61022F05F1140211D1D8F80030013B9E4227D17111012306F01F0603FA06F652F821301E420CBF022701271AE02B69D0
:401FC0009A450ADA01212846FFF7B7FDD8F8083001349C423FF72CAF0BE016F01F0608D0914459F8040C00F096F9C6F12006B042E8DB012747F0200701E047F01007384650
:40200000149B1D60069B1C600BB0BDE8F08FC2F10802920070B5C2F120064368056803FA06F42C43D340046040F8043F8842F4D370BD30B5036811F8014B01334CB11A7895
:40204000A2F14105192D98BF2032A242F3D0002030BD0360012030BD0B682DE9F04F5E1102EB860613F01F0318BF0436351F174600228246A8462C46914685B0D0F800B00E
:40208000019346F8042C00921BF8011F00293CD0084603920291FFF786FD039A00BB0299202916D8009B9945EEDD444505D2072A03DC41462046FFF7AAFFBC4223D90023AE
:4020C000A4F1040844F8043CCDF8009044461A46DAE7292948D10BF10103CAF8003014E00132082A09F1010906DDBC42CCD9002344F8043C0122043C216800F00F0040EACF
:4021000001102060C0E70822BEE7B9F1000F2BD0444505D2072A03DC41462046FFF777FFBC420CD93B4654F8042BA54243F8042BF9D2002243F8042B9D42FBD20BE0019B61
:402140004BB1C3F120024FF0FF33D34056F8042C134046F8043C2B6843B9BD4202D101232B6003E0043DF6E7042000E0052005B0BDE8F08F0048704744C1FF1F024B0146F1
:40218000186800F047BC00BF40C1FF1F70B5456A04460E463DB91020FFF7F0FF6062456085600560C560656AEB6843B1636ADB6853F8260078B1026843F8262017E0212296
:4021C0000421204600F0CBFB636AE860DB68002BECD1002070BD012101FA06F56A1D9200204600F0BCFB0028F3D04660856000230361C36070BD70B5446A06460D463CB91F
:402200001020FFF7BBFF7062446084600460C4603DB1736A6A68DB6853F82210296043F8225070BD2DE9F04106460C460D691F4601F1140E0023DEF80000013381B202FBEB
:402240000171000C0F0C02FB007089B201EB00419D424FEA10474EF8041BECDCD7B1A3689D4212DB616830460131FFF78FFF8046226904F10C01023292000C30FEF78CFD2D
:4022800021463046FFF7B7FF444604EB850301355F6125612046BDE8F0812DE9F843064615461F46092208330C4693FBF2F3002101229A4202DA52000131FAE73046FFF747
:4022C00065FF089B092D43614FF00103036111DD04F10908C1462C4419F8013B0146303B0A223046FFF79EFFA145F5D108EB0504083C01E00A3409252D1B63199F4208DDF4
:4023000014F8013B0146303B0A223046FFF78AFFF3E7BDE8F883030C1B0413B90004102300E0002310F07F4F04BF0002083310F0704F04BF0001043310F0404F04BF8000FA
:402340000233002803DB420003D5581C70471846704720207047036813F007020BD0D90722D49A074BBF5B089B08036003604CBF01200220704799B209B91B0C102213F0C4
:40238000FF0F04BF1B0A0832190704BF1B090432990704BF9B080232D90702D45B0805D00132036010467047002070472020704710B50C460121FFF7E9FE012244610261D6
:4023C00010BD2DE9F74F14460A69236988469A42BEBF0B46A0461C46D8F81070D4F81090D8F80830D8F8041007EB09069E42C8BF0131FFF7CBFE00F114052B4605EB860C9D
:402400000022634502D243F8042BFAE704F1140208F1140102EB890301EB87070093009B0192934257D9B2F800B0BBF1000F23D08946AE464FF0000859F8044BBEF800A0D9
:40244000A3B20BFB03A34FEA144ADEF8004043444FEA14480BFB0A84F24604EB13449BB243EA04434F454FEA14484AF8043B01D9D646E1E7CEF80480019B0432B3F802A0EE
:40248000BAF1000F21D02C4689462B684FF00008B9F800E0B4F802B09BB20AFB0EBEA346F04443EA08434BF8043B59F8043BB4F804E01B0C0AFB03E34F4503EB18434FEAEA
:4024C000134801D95C46E3E763600435A7E75CF8043D13B9013E002EF9DC066103B0BDE8F08F00002DE9F843154612F0030206460F4607D0214C013A002354F82220FFF756
:4025000091FE0746AD1036D0746A3CB91020FFF735FE7062446084600460C460D6F82480D8F808404CB940F271213046FFF740FF04460023C8F8080003604FF00008EB071F
:402540000AD5394622463046FFF73BFF814639463046FFF750FE4F466D100CD0206808B10446ECE7224621463046FFF72AFF2060C0F80080F4E73846BDE8F883B83900001D
:402580002DE9F0470C460746914626694FEA621A56444968A368751CAB4202DA01315B00FAE73846FFF7F2FD002380461A4600F11401534503DA41F823200133F9E72AEA2B
:4025C000EA73206901EB830319F01F0904F1140101EB800E14D0C9F1200C002208689A4600FA09F0024343F8042B51F8042B8E4522FA0CF2F2D8CAF8042042B1B51C06E031
:40260000043B51F8042B8E4543F8042FF9D8013D3846C8F810502146FFF7EDFD4046BDE8F08703690A6910B59B1A11D192001430143183180A4453F8044D52F8041D8C42F8
:4026400002D007D3012010BD9842F4D3002010BD184610BD4FF0FF3010BD2DE9F8430C460746114620461546FFF7DBFF061E08D131463846FFF78AFD012303614661BDE8B1
:40268000F883BCBF23462C4638466168BABF1D4601260026FFF77AFD2B69C660266905F1140904F1140101EB860709EB830800F114054FF0000C51F8042B59F8044B93B25C
:4026C0009C44A3B2240CC3EB0C03C4EB124202EB23429BB24FEA224CC84543EA02428E4645F8042BE7D8BE450ED25EF8041B8AB26244131403EB114392B242EA03424FEA61
:40270000234C45F8042BEEE755F8043D0BB9013EFAE70661BDE8F883104B0B40A3F15073002B02DD0020194670475B421B15132B4FF000004FF0000104DC4FF4002242FAA8
:4027400003F17047143B1E2B4FF00102CEBF1346C3F11F0302FA03F3184670470000F07FF8B5056900F1140606EB850555F8044C2F1F2046FFF7CFFDC0F120030A280B607D
:4027800014DCC0F10B0E24FA0EF1BE4241F07F5334BF55F8081C0021153004FA00F021FA0EF143F4401340EA010223E0BE423ABFA5F1080755F8081C00210B3815D0844097
:4027C000C0F1200544F07F5444F44014B74221FA05FE44EA0E038CBF57F8044C002401FA00F0EC4040EA040204E00A4644F07F5343F4401310461946F8BD2DE9F3411C46EB
:4028000001219046089E099DFFF7C0FCC4F31302C4F30A5407460CB142F480120192B8F1000F19D002A840F8088DFFF794FD009B48B1019AC0F1200102FA01F10B43C2407E
:402840007B61019200E07B61019B002B14BF02210121BB61396107E001A8FFF77CFD019B01217B613961203034B1A4F2334404443460C0F1350009E0A0F2324007EB8103FE
:4028800030601869FFF747FDC0EB41102860384602B0BDE8F0812DE9F743884669468146FFF75EFF0D46044601A94046FFF758FF0F460646D9F81030D8F8102020469A1A36
:4028C0009DE80A00C91A01EB4213002BCCBF05EB0355A7EB035732463B46294600F094FD03B0BDE8F083013910B549111469013102F1140300EB810103EB8404A342024665
:4029000004D253F8042B40F8042BF7E700238A4202D242F8043BFAE710BD00F1140200694B11984210B50CDB0CDD11F01F0109D052F8234024FA01F000FA01F18C420CD190
:4029400000E0034602EB8303934204D953F8041D0029F9D001E0002010BD012010BD38B502FB01F4214600F055F8054618B122460021FEF71CFA284638BD000038B5054629
:40298000002944D051F8043C0C1F002BB8BFE41800F0DEFB1E4A1368114613B96360146030E0A3420DD92268A018834201BF18685B681218226063600C6023E0A24203D800
:4029C00013465A68002AF9D118681918A1420BD12168014458188242196013D110685268014419605A600DE002D90C232B6009E021686018824201BF10685268091821608B
:402A000062605C602846BDE8384000F0A2BB38BDC4C1FF1F70B5CD1C25F0030508350C2D38BF0C25002D064601DBA94202D90C23336046E000F08CFB234B1C681A462146AC
:402A4000A1B10B685B1B0ED40B2B03D90B60CC18CD501EE08C420BBF63684B681360636018BF0C4615E00C464968E9E7174C23681BB9304600F016FB20602946304600F0F2
:402A800011FB431C18D0C41C24F00304A0420DD12560304600F05DFB04F10B00231D20F00700C31A0ED05A42E25070BD211A304600F0F8FA0130EBD10C233360304600F010
:402AC00048FB002070BD00BFC4C1FF1FC0C1FF1F2DE9F0478E6882469E420C46914698463ED88A8912F4906F3AD02568096902236F1A656905EB450595FBF3F57B1C4344D0
:402B00009D4238BF1D4653050FD52946FFF782FF064698B13A462169FEF73EF9A38923F4906343F08003A38113E02A4600F012FB064670B921695046FFF720FF0C23CAF864
:402B40000030A3894FF0FF3043F04003A381BDE8F08726613E44266046466561ED1BA560464528BF464649463246206800F0D5FAA36800209B1BA36023681E442660BDE89F
:402B8000F08700002DE9F04F9DB003938B8980461C060D4616460DD50B695BB94021FFF739FF2860286118B90C23C8F80030CDE040236B610023099320238DF82930DFF82E
:402BC0009CB130238DF82A3037463C4614F8013B1BB9B7EB060910D003E0252BF9D02746F3E74B46324629464046FFF771FF013000F0A780099B4B4409933B78002B00F01E
:402C0000A08000234FF0FF3204930793059206938DF853301A930126052221784E4800F06EFA671C049B38B14B4A3C46801A06FA00F018430490EFE7D90644BF20228DF8DC
:402C400053201A0744BF2B228DF8532022782A2A03D0079A00210A200BE0039A111D12680391002A10DA524243F00200079204900BE027463B780134303B092B03D800FB48
:402C800002320121F5E701B107923B782E2B1ED17B782A2B0AD1039B02371A1D1B680392002BB8BF4FF0FF33059310E0002319460593781C0A2407463A780130303A092A0F
:402CC00003D804FB01210123F5E703B1059103223978224800F013FA40B14023CBEB000003FA00F0049B013718430490397806221B487E1C8DF8281000F001FA88B1194B79
:402D000033B9039B073323F007030833039314E003AB00932A46144B04A94046AFF3008007E003AB00932A460F4B04A9404600F093F8B0F1FF3F824603D0099B5344099397
:402D400042E7AB895B0601D4099801E04FF0FF301DB0BDE8F08F00BFF0390000F6390000FA39000000000000D12A00002DE9F04791461F460A698B6806469342B8BF1346BA
:402D8000C9F8003091F843200C46DDF8208012B10133C9F800302368990642BFD9F800300233C9F80030256815F0060510D104F1190A07E00123524639463046C0470130CF
:402DC0001AD00135E368D9F800209B1A9D42F1DB94F843302268003318BF012392060FD5E118302081F843005A1C94F845102244023382F8431003E04FF0FF30BDE8F087B3
:402E000004F1430239463046C0470130F4D02268D9F80050E36802F00602042A08BF5D1B2269A3680CBF25EAE57500259342C4BF9B1AED184FF000091A344D4509D00123E4
:402E4000224639463046C0470130D5D009F10109F3E70020BDE8F0872DE9F04317460A7E85B06E2A984606460C460C9B01F1430E00F0AE8011D8632A22D009D8002A00F01C
:402E8000BB80582A40F0CA8081F84520834955E0642A1ED0692A1CD0C0E0732A00F0B08009D86F2A2ED0702A40F0B8800A6842F020020A603EE0752A24D0782A3AD0ADE010
:402EC0001A6801F14205111D1960136884F84230A8E021681A6811F0800F02D0111D196008E011F0400F02F10401196002D0B2F9003000E01368002B3CDA2D225B4284F811
:402F0000432037E021681A6811F0800F02D0111D196007E011F0400F02F10401196001D0138800E01368227E5C496F2A14BF0A2208221BE078225A4984F84520226818686A
:402F400012F0800F00F104051D6003D1550601D5038800E00368D00744BF42F0200222601BB9226822F0200222601022002084F8430001E049490A226568002DA56008DB18
:402F8000206820F0040020602BB9002D7DD175460CE0002B79D07546B3FBF2F002FB1033CB5C05F8013D03460028F5D1082A0BD12368DA0708D5236962689A42DEBF3023DE
:402FC00005F8013C05F1FF35C5EB0E0323612EE008681A6810F0800F496903D0101D1860136808E010F0400F02F104001860136801D0198000E0196000232361754616E0B8
:403000001A68111D1960156800216268284600F076F808B1401B6060636804E004F1420584F8422001232361002384F84330CDF800803B4603AA21463046FFF797FE0130D0
:4030400002D14FF0FF3026E023692A4639463046C0470130F5D023689B0710D5002504F1190907E001234A4639463046C0470130E7D00135E368039A9B1A9D42F2DBE06887
:40308000039B9842B8BF184605E00B7804F1420584F842308AE705B0BDE8F083013A0000123A000038B5064C0023054608462360FDF7F4F9431C02D1236803B12B6038BD1C
:4030C00068C2FF1F034613F8012B002AFBD1181A0138704730B582B1451E013915F8013F11F8014FA34206D1EC431444E04201D0002BF3D11C46181B30BD104630BD10B5E6
:40310000C9B202449042034605D01C7801308C42F8D1184610BD002010BD884210B501EB020301D8421E0BE09842FBD28118D21AD34204D013F8014D01F8014DF8E710BD65
:40314000994204D011F8014B02F8014FF8E710BD70477047F8B5074615460E4621B91146BDE8F840FFF756BC1AB9FFF707FC2846F8BD00F015F885420ED929463846FFF7AB
:4031800049FC044650B131462A46FDF705FE31463846FFF7F3FB01E03046F8BD2046F8BD51F8040C0028BEBF091851F8043CC0180438704770B54FF0FF0C4CF4E06C1CEA2D
:4031C00011541DBF1CEA135594EA0C0F95EA0C0F00F0DEF82C4481EA030621EA4C5123EA4C5350EA013518BF52EA033541F4801143F4801338D0A0FB02CE4FF00005E1FB11
:4032000002E506F00042E0FB03E54FF00006E1FB03569CF0000F18BF4EF0010EA4F1FF04B6F5007F64F5407404D25FEA4E0E6D4146EB060642EAC62141EA55514FEAC5203C
:4032400040EA5E504FEACE2EB4F1FD0C88BFBCF5E06F1ED8BEF1004F08BF5FEA500E50F1000041EB045170BD06F0004646EA010140EA020081EA0301B4EB5C04C2BFD4EBB3
:403280000C0541EA045170BD41F480114FF0000E013C00F3AB8014F1360FDEBF002001F0004170BDC4F10004203C35DA0C341BDC04F11404C4F1200500FA05F320FA04F03A
:4032C00001FA05F240EA020001F0004221F0004110EBD37021FA04F642EB06015EEA430E08BF20EAD37070BDC4F10C04C4F1200500FA04F320FA05F001FA04F240EA02000E
:4033000001F0004110EBD37041F100015EEA430E08BF20EAD37070BDC4F1200500FA05F24EEA020E20FA04F301FA05F243EA020321FA04F001F0004121FA04F220EA02006A
:4033400000EBD3705EEA430E08BF20EAD37070BD94F0000F0FD101F00046400041EB010111F4801F08BF013CF7D041EA060195F0000F18BF704703F00046520043EB0303AB
:4033800013F4801F08BF013DF7D043EA0603704794EA0C0F0CEA135518BF95EA0C0F0CD050EA410618BF52EA4306D1D181EA030101F000414FF0000070BD50EA410606BF98
:4033C0001046194652EA430619D094EA0C0F02D150EA013613D195EA0C0F05D152EA03361CBF104619460AD181EA030101F0004141F0FE4141F470014FF0000070BD41F045
:40340000FE4141F4780170BD70B54FF0FF0C4CF4E06C1CEA11541DBF1CEA135594EA0C0F95EA0C0F00F0A7F8A4EB050481EA030E52EA03354FEA013100F088804FEA0333A6
:403440004FF0805545EA131343EA12634FEA022245EA111545EA10654FEA00260EF000419D4208BF964244F1FD0404F5407402D25B084FEA3202B61A65EB03055B084FEA84
:4034800032024FF480104FF4002CB6EB020E75EB030E22BFB61A754640EA0C005B084FEA3202B6EB020E75EB030E22BFB61A754640EA5C005B084FEA3202B6EB020E75EB0D
:4034C000030E22BFB61A754640EA9C005B084FEA3202B6EB020E75EB030E22BFB61A754640EADC0055EA060E18D04FEA051545EA16754FEA06164FEAC30343EA52734FEA5E
:40350000C2025FEA1C1CC0D111F4801F0BD141EA00014FF000004FF0004CB6E711F4801F04BF01430020B4F1FD0C88BFBCF5E06F3FF6AFAEB5EB030C04BFB6EB020C5FEAE6
:40354000500C50F1000041EB045170BD0EF0004E4EEA113114EB5C04C2BFD4EB0C0541EA045170BD41F480114FF0000E013C90E645EA060E8DE60CEA135594EA0C0F08BFA3
:4035800095EA0C0F3FF43BAF94EA0C0F0AD150EA01347FF434AF95EA0C0F7FF425AF104619462CE795EA0C0F06D152EA03353FF4FDAE1046194622E750EA410618BF52EA5D
:4035C00043067FF4C5AE50EA41047FF40DAF52EA43057FF4EBAE12E74FF0FF3C06E000BF4FF0010C02E000BF4FF0010C4DF804CD4FEA410C7FEA6C5C4FEA430C18BF7FEA78
:403600006C5C1BD001B050EA410C0CBF52EA430C91EA030F02BF90EA020F0020704710F1000F91EA030F58BF994208BF90422CBFD8176FEAE37040F0010070474FEA410C7D
:403640007FEA6C5C02D150EA013C07D14FEA430C7FEA6C5CD6D152EA033CD3D05DF8040B704700BF8446104662468C461946634600E000BF01B5FFF7B7FF002848BF10F1CC
:40368000000F01BD4DF808EDFFF7F4FF0CBF012000205DF808FB00BF4DF808EDFFF7EAFF34BF012000205DF808FB00BF4DF808EDFFF7E0FF94BF012000205DF808FB00BFD9
:4036C0004DF808EDFFF7CEFF94BF012000205DF808FB00BF4DF808EDFFF7C4FF34BF012000205DF808FB00BF4FEA410212F5001215D211D56FF47873B3EB625212D94FEABE
:40370000C12343F0004343EA505311F0004F23FA02F018BF404270474FF00000704750EA013005D111F0004008BF6FF0004070474FF00000704700BF4A0011D212F5001260
:4037400011D20DD56FF47873B3EB62520ED44FEAC12343F0004343EA505323FA02F070474FF00000704750EA013002D14FF0FF3070474FF00000704700000000000000008A
:403780002C00000024474E524D43000041000000496E697469616C697A696E672E2E2E0D0A00000047657474696E672047505320446174612E2E2E0D0A00000024504D5449
:4037C0004B3331342C302C312C302C312C302C302C302C302C302C302C302C302C302C302C302C302C302C302C302A32380D0A0047505320646174613A0D0A004C41543A55
:403800002025662025632C204C4F4E3A2025662025632C205350443A2025662C2054494D453A202573200D0A00000000005100401000205100401000405100403000C05143
:4038400000401000F0510040100000000140800200030140000D00140140000280160140800500400140000A004C0140000200500140200080020140D0050048800000165F
:4038800001405006004880004300000034000000CEFBFFFFCB03000001000000000000006E6600696E69747900616E0035000000CEFBFFFFCB030000010000000000000001
:4038C000BC89D897B2D29C3C33A7A8D523F649393DA7F444FD0FA5329D978CCF08BA5B25436FAC6428066811504F534958002E00000000000000F03F000000000000244039
:4039000000000000000059400000000000408F40000000000088C34000000000006AF8400000000080842E4100000000D01263410000000084D797410000000065CDCD4146
:40394000000000205FA00242000000E876483742000000A2941A6D42000040E59C30A2420000901EC4BCD64200003426F56B0C430080E03779C3414300A0D885573476430A
:4039800000C84E676DC1AB43003D9160E458E143408CB5781DAF154450EFE2D6E41A4B4492D54D06CFF08044F64AE1C7022DB544B49DD9794378EA44050000001900000047
:4039C0007D000000000000000080E03779C34143176E05B5B5B89346F5F93FE9034F384D321D30F94877825A3CBF737FDD4F1575232D302B2000686C4C00656667454647DC
:403A0000003031323334353637383941424344454600303132333435363738396162636465660000F8B500BFF8BC08BC9E4670474D00000019050000F8B500BFF8BC08BCB4
:403A40009E46704729000000583A0000C8C0FF1FB8000000F00000000000000070C2FF1F0000E02EC05D00001800000000366E01000000000000000000000000000000006A
:403A80000000000000000000000000000000000088380000000000000000000000000000000000000000000000000000000000000000000000000000000000000000000046
:403AC00000000000000000000000000000000000E0C0FF1FEE380000F5390000F5390000F5390000F5390000F5390000F5390000F5390000F5390000F5390000FFFFFFFF48
:403B0000FFFFFFFFFFFFFFFFFFFF0000000000000000000000000000000000000000000000000000000000000000000000000000000000000000000000000000000000008F
:403B40000000000000000000000000000000000000000000000000000000000000000000000000000000000000000000000000000000000000000000000000000000000045
:403B80000000000000000000000000000000000000000000000000000000000000000000000000000000000000000000000000000000000000000000000000000000000005
:403BC00000000000000000000000000000000000000000000000000000000000000000000000000000000000000000000000000000000000000000000000000000000000C5
:403C00000000000000000000000000000000000000000000000000000000000000000000000000000000000000000000000000000000000000000000000000000000000084
:020000040001F9
:0200000480007A
:4000000003520040046400400265004018020140350301405F0401404C050140690601404507014051140140481501400E1601404B170140024001400141014003420140BD
:4000400002430140014801400E4901400550014001510140181019021C21823883768438870F850F86761A01260130013E014002474049FF4A0F4BFF4C404D204EF04F05A9
:400080005008541858045A045B045D115F01604061A86240632001810208032008100A480B100E0410401202132A1610180419401AC81B081F01200A220A234228502910B4
:4000C0002A802F0C3268382A3B40400543084408480149104B1050805310564259405C026520670269546B4070157328C00FC24EC42FCA0FCC0ECE0FD02ED20CD688D830EF
:40010000000301D0052006040740080109D00A020C010E020F03118013101503160419031A081B081F0321032208240126022703280129022A022B042D012F0430083103AE
:40014000320333C034043530370C39283E113F444003474049FF4A0F4BFF4C404D204EF04F05500854185604580459045A045B045F01604061A8624063208161821C8396A9
:40018000845C8683886189618A968B8E915C9383971C9C619E8EA160A2A3A380A860AA80ABA3AE08AF08B1F0B20FB31AB4F0B61AB70FBAA8BB8AD804D904DC01DF01000887
:4001C00001400208034005150B280E01108011141646180419081B011D141E0120012124220123082410250126022731284429882A802D022F09325433213709381A3902F8
:400200003B443C103D0241044C014E025004510253095A026044630265086710804084048501915492889368940195019604971098409A429B409C0A9DA09E90A084A208E4
:40024000A620A720C07FC286C4DECABFCCCFCEAFD002D601D80D011F03E008CD09480A300B250D250E010FDA10C012301455159216A8172518A81A541C0D1D031EF01FFC20
:40028000203D22C024CD25E32630271C29E32B1C2DE02E022F1C300331FF34FC3F0140344105460E47BC483449FF4AFF4BFF4EF04F44500C580459045A045C015D015F01F8
:4002C00066C06A406B0281038240841488208A038C1C8E42901095019702980999019A109B029D019F02A050A20CA640A84CAA11AD01AF02B040B21FB303B420BE11C045F5
:40030000C102C5CBC6E0C80BC9FFCAFFCBFFCEF0CF44D00CD401D804D904DA04DB04DC10DF01E6C0EA40EB020012010A03010440060809220A030C400E480F20110213244F
:400340001501178418181A801C401E082310278029902A202D802E482F2830403280332C368439013C403D013F20410143104660490A4A024E015310544856045702582048
:400380005A885B028004915692019304962499149A429B719C0E9D239E94A123A208A620C0CFC2FAC4BECA78CC5ECEB1D0C5D218D60F020205E30601071C080D09E30AF01D
:4003C0000B1C0DE00F1C105512A814A81503165417FC19491BB61C3D1D1F1EC01FE024CD263028CD29922A302B492CC02D242E302F49320334FC37FF3F40580459045F019E
:4004000080088210834084208604878088348E0191099310951C9602974299509A029B0C9C349D209F03A110A54CA711AB40AD14B00CB11FB203B320B430B580B740B822A1
:40044000BA80BE14BF44D401D804D904DB04DC11DD10DF0100020228044105140640084409020E090F221154140216011A281D091F50200224142640278028042A802C08FD
:400480002D202E022F223040323833403515378039543C013E0858045A085C025D285E807C087F108103828883108B218C10904091549201940496209780991C9A439B40FB
:4004C0009C0C9D019E80A008A20CA302A509A710A984AC12C0FEC2EDC407CAFCCCFECECED6F0E2108201860189028C02AF01B202B302B401B501BE14BF04D804D904DF015C
:40050000008A0201044A0704080209020C400E080F201401172919281C221D221E041F0422242504268127052A802C412D802E082F4437253B203C043D023F504440452872
:400540004C074F10540456105E02650267406D016E406F2875027608772890409154920193309501966C99149A429B409C0E9D219E90A048A20CA302A6A0A738AE02AF04F6
:40058000B021B312C0FDC2E0C4F0CAF8CCE0CEF4D0E0D230D6803380CC10A7808380A780E6208201E680A20103400E105A805E02821083408E40A201C010C220D480D6802B
:4005C000E080E480000308030A0310031A030003024000000308000000100C00013C00821F0060000040631873000C04003C00817FBF000008A70018040000035C042300B8
:400600002C1F4C600F8010000028228200004000260503000100EC000CFFFFFF62A0F0410C00000000000210040404040000000100000000000040020010301000101012CE
:4006400000000000000000000000000000000000F3040C000000B3040F00F0833340000000400018113C008122080000FF00000000BF0C000810000004A700188C3C738219
:4006800030200F1F8C9840608080082800000001560402000300C00E18FFFFFF62A0F0410C000000000002130404040411110001000000000000400200103010001010123A
:4006C00000000000000000000000000000000000000B0B0000000000120021929200120000000000000000000000000000000000000000000000000000000000000000007B
:4007000000000000000000000000000000000000000000000000000000000000000000000000000000000000000000000000000000000000000000000000000000000000B9
:400740000000000000000000000000000000000000000000000000000000000000000000000000000000000000000000000000000000000000000000000000000000000079
:400780000000000000000000000000000000000000000000000000000000000000000000000000000000000000000000000000000000000000000000000000000000000039
:4007C00000000000000000000000000000000000000000000000000000000000000000000000000000000000000000000000000000000000000000000000000000000000F9
:0200000490006A
:0400000000004005B7
:0200000490105A
:04000000BC90ACAF55
:0200000490303A
:02000000B9A79E
:0200000490402A
:4000000000000000000000000000000000000000000000000000000000000000000000000000000000000000000000000000000000000000000000000000000000000000C0
:400040000000000000000000000000000000000000000000000000000000000000000000000000000000000000000000000000000000000000000000000000000000000080
:0200000490501A
:0C00000000012E15906900012E2E4A1000
:00000001FF