:4000000000400020110000001D0600001D06000008B5044B1A6803F53F5302331A6000F01DFB00BFFA46004010B5054C237833B9044B13B10448AFF300800123237010BD59
:4000400048C1FF1F00000000B0250000084B10B51BB108490848AFF300800848036803B910BD074B002BFBD0BDE81040184700BF000000004CC1FF1FB0250000C8C0FF1F98
:4000800000000000000000002DE9F04782B0D0E90467D0E90245028D44F253539A4240F09480824600224E4B3046394601F04AF801F030F900F0B6FECDE900010022484B3D
:4000C00000F016FF02460B463046394600F05CFD8046894601F01EF900F0A4FE06460F4602460B464046494600F04EFD00223C4B00F0FEFE8046894635A3D3E90023304614
:40010000394600F0F5FE02460B46DDE9000100F03DFD06460F4630A3D3E900234046494600F0E6FE02460B463046394600F02EFDCAE9040100222A4B2046294601F002F8DF
:4001400001F0E8F800F06EFE804689460022244B00F0CEFE02460B462046294600F014FD06460F4601F0D6F800F05CFE04460D4602460B463046394600F006FD0022194BB3
:4001800000F0B6FE06460F4611A3D3E900232046294600F0ADFE02460B464046494600F0F5FC04460D460CA3D3E900233046394600F09EFE02460B462046294600F0E6FC7C
:4001C000024601F10043CAE9022302B0BDE8F08711BA1F111111913FAB49D9785634323F000059400000244070B586B0044600F0A9FB88B917E0264D2E6800F061FB264482
:4002000086F82A002B6801332B60B3F5807F03D100222A6001226A6000F094FB18B11C4B5B68002BE7D01B4904F12A0001F032F90378472B2AD104E0E11881F87C230133AC
:4002400000E00023C25C0A2AF6D104F5467504F55F721149284601F0C5F804F12003049304F11803039304F12903029304F11003019304F12803009304F10803224607495C
:40028000284601F0D3F82046FFF7FEFE06B070BD64C1FF1FB4250000BC250000C425000070B562B600F066FA00F0FCFA0120444B986000F049FC434800F08CFA4FF4FA70F5
:4002C00000F000FC404800F085FA404800F082FA3F4800F07FFA3E2000F070FA00F058FA064620B100F06AFA304600F061FB312E08D1384800F06EFA374800F065FB3748AC
:4003000000F062FB322E08D1354800F063FA324800F05AFB334800F057FB332E09D1324C204600F057FA314800F054FA204600F04BFB342E09D12E4C204600F04BFA2D4878
:4003400000F048FA204600F03FFB00F0FBFA80B916E01B4C256800F0B3FA274B5855236801332360B3F5807F03D1002222600122626000F0E7FA18B1114B5B68002BE8D015
:4003800000F03AFA98B90E4BDA681B689A420ED0194B985C00F012FA094AD3680133D360B3F5807F03D113460022DA605A60362E94D1124800F00EFA1148FFF715FF8DE7CB
:4003C00064C1FF1FF0250000002600001C26000040260000E8260000082700002C270000482700006827000084270000B8270000D82700000C28000088C1FF1F2C280000D1
:4004000088C2FF1FFEE700BFF0B40022174611E050F82760F3B226F0FF0608E001EB420511F812406D78A5550132013BDBB2002BF4D10137132FEBD9F0BC7047064B1B7847
:40044000DBB203F00701054A11701B09013213704422034B1A707047CF0100496E5800407658004008B50A46002100F0B2FF08BD38B59B22264B1A801823264A13704FF46E
:400480009C7102321180023213700222224B1A7008224FF040231A70032103F5007319701E4B1B78DBB21E490B701E4B1A8041F25122023B1A80002419250CE01A4B1B78F9
:4004C00003F0010343EA440404F003044FF4F07000F046FB013D0DB1032CEFD115B90320FFF790FF114B4FF480721A8007221A7000220F490A704820023108701A700222CD
:40050000033B1A700B4A137843F00303137038BD80400040824000400043004008010049A146004022420040254200400440004006400040A243004008B500F03FFF08BD3A
:4005400038B572B6284A137843F00403137000240CE0264D630019194A0011462A44084691882858FFF77EFF0134E4B2092CF0D91F494FF09040FFF747FF1E4A137843F089
:40058000020313701032137843F0020313701A4C237843F040032370A2F58632513A137843F010031370082214491548FFF7C4FF0A2214491448FFF7BFFF144A137843F0A1
:4005C00008031370124D61232B70FFF751FF81232B7001220F4B1A70FFF730FF0E2221460D48FFF7A9FF38BDE84600403C2800005000004803500140A04300409C060048B4
:4006000012510040A406004830510040224300400048004004000840B043004008B500F0A1FE03680C2B00D1FEE7FEE708B5094B1A681044084BC31A802B02DC054B1860C7
:4006400005E000F08FFE0C2303604FF0FF32104608BD00BFCCC0FF1F70CEFF1F08B5104E104D16E029686B68AC68002204E051F8040B43F8040B0432A242F8D1E868002253
:4006800003E0002143F8041B04328242F9D11035013E002EE6D100F06BFEFFF701FEFEE7010000005C2A000008B5104A104B1A60104A136843F40073136000230AE0032BDC
:4006C00003D80D4A52F8231000E00C490C4A42F8231001332F2BF2D90A4B1A780A4B1A70074A0A4B1A60FFF72BFF08BD0004FA050CED00E014ED00E0000000001D0600004F
:4007000000C0FF1FBC760040C0C0FF1F08ED00E07622094B1A70202203F203131A700E22A3F25F131A708F2210331A70002203F5A7731A70704700BF8264004010B500F05B
:4007400017FA04460A4A137843F02003137002F20312137843F010031370013A137843F01003137000F090F9204600F005FA10BD9264004008B5054B1B7823B9FFF7C8FF70
:400780000122024B1A70FFF7D9FF08BD74C1FF1F084B1B78DBB213F0200F06D0064A1078C0B213F01E0F02D17047002070470020704700BF6565004045640040034B1B7899
:4007C00013F0040FFAD1024B18707047646500404465004038B5074B1B782BB938BDFFF7EDFF0134A4B201E005460024285D0028F5D138BD74C1FF1F074B1B78DBB213F002
:40080000040F04D113F0020F03D000207047042070470120704700BF6465004008B50D49002000F065F90721002000F075F90023094A13707221094A117020210332117019
:400840000621A03211704721103211704F32137008BD00BFED09000076C1FF1F8464004010B500F085F904460B4A137843F0200313700332137843F0100313700122074BA4
:400880001A60074A137843F01003137000F00AF9204600F071F910BD9464004000E100E09665004008B5054B5B7823B9FFF7B6FF0122024B5A70FFF7D3FF08BD76C1FF1FE2
:4008C00001221A4B1A601A4A53889BB2918889B2927912F0FF0F01D18B4212D0154AD05CC0B201339BB2B3F5006F00D30023104A5380937913F0FF0F13D000220C4B9A713E
:400900000FE00D4B1B78DBB213F0200F06D00B4A1078C0B213F01E0F02D102E0002000E000200122064B1A60704700BF80E100E076C1FF1F68C6FF1F6764004043640040BC
:4009400000E100E00122174B1A60174B5A8892B29B889BB29A4207D1134B9B7913F0FF0F1BD04FF4006019E00F4B5A8892B29B889BB29A4207D20C4A908883B2508880B2AF
:40098000181A80B20AE0084A908883B2508880B2181A00F5006080B200E000200122034B1A60704780E100E076C1FF1F00E100E0034B1B7813F0040FFAD1024B1870704740
:4009C000666500404665004038B5074B5B782BB938BDFFF7EDFF0134A4B201E005460024285D0028F5D138BD76C1FF1F1E4B1B78DBB213F01E0F05D01C4803F01E0201781E
:400A00000A43027003F0200303F0FF02002B28D0174B1978C9B2174B1B889BB21648C154164B1B7813F0FF0F02D00121144B197010490B889BB201339BB20B800B889BB291
:400A4000B3F5006F02D300210A4B1980094B198889B20C4B1B889BB2994202D10121074B1970002AC2D170476764004076C1FF1F436400407AC1FF1F68C6FF1F7CC1FF1F9E
:400A80007DC1FF1F78C1FF1F054A137843F0010313701032137843F001031370704700BFA2430040054A137843F0020313701032137843F002031370704700BFA243004015
:400AC00001BE704710B5044605E0084B186800F047F8A4F50044B4F5004FF6D8034B586800FB04F000F03CF810BD00BFD0C0FF1F70B504460E46074B1D681F2802D90020B0
:400B0000FFF7DEFF04F01F04103455F8240045F8246070BD08ED00E038B504460D46072902D90020FFF7CCFF1F2C02D90020FFF7C7FF04F01F0000F1604000F564406D0130
:400B4000EDB2057038BD00BF044A137803F07F03C001C0B218431070704700BF305100400230800803D000BF01380046FCD17047EFF3108072B6704780F31088704700BFF9
:400B800081F0004102E000BF83F0004330B54FEA41044FEA430594EA050F08BF90EA020F1FBF54EA000C55EA020C7FEA645C7FEA655C00F0E2804FEA5454D4EB5555B8BF89
:400BC0006D420CDD2C4480EA020281EA030382EA000083EA010180EA020281EA0303362D88BF30BD11F0004F4FEA01314FF4801C4CEA113102D0404261EB410113F0004F77
:400C00004FEA03334CEA133302D0524263EB430394EA050F00F0A780A4F10104D5F1200E0DDB02FA0EFC22FA05F2801841F1000103FA0EF2801843FA05F359410EE0A5F1E4
:400C400020050EF1200E012A03FA0EFC28BF4CF0020C43FA05F3C01851EBE37101F0004507D54FF0000EDCF1000C7EEB00006EEB0101B1F5801F1BD3B1F5001F0CD34908FE
:400C80005FEA30004FEA3C0C04F101044FEA445212F5800F80F09A80BCF1004F08BF5FEA500C50F1000041EB045141EA050130BD5FEA4C0C404141EB010111F4801FA4F180
:400CC0000104E9D191F0000F04BF01460020B1FA81F308BF2033A3F10B03B3F120020CDA0C3208DD02F1140CC2F10C0201FA0CF021FA02F10CE002F11402D8BFC2F1200C8D
:400D000001FA02F120FA0CFCDCBF41EA0C019040E41AA2BF01EB0451294330BD6FEA04041F3C1CDA0C340EDC04F11404C4F1200220FA04F001FA02F340EA030021FA04F30A
:400D400045EA030130BDC4F10C04C4F1200220FA02F001FA04F340EA0300294630BD21FA04F0294630BD94F0000F83F4801306BF81F480110134013D4EE77FEA645C18BFB5
:400D80007FEA655C29D094EA050F08BF90EA020F05D054EA000C04BF1946104630BD91EA030F1EBF0021002030BD5FEA545C05D14000494128BF41F0004130BD14F58004A4
:400DC0003CBF01F5801130BD01F0004545F0FE4141F470014FF0000030BD7FEA645C1ABF194610467FEA655C1CBF0B46024650EA013406BF52EA033591EA030F41F4002128
:400E000030BD00BF90F0000F04BF0021704730B54FF4806404F132044FF000054FF0000150E700BF90F0000F04BF0021704730B54FF4806404F1320410F0004548BF4042FC
:400E40004FF000013EE700BF42004FEAE2014FEA31014FEA02701FBF12F07F4393F07F4F81F06051704792F0000F14BF93F07F4F704730B54FF4607401F0004521F000411E
:400E800020E700BF50EA010208BF704730B54FF000050AE050EA010208BF704730B511F0004502D5404261EB41014FF4806404F132045FEA915C3FF4DCAE4FF003025FEAFF
:400EC000DC0C18BF03325FEADC0C18BF033202EBDC02C2F1200300FA03FC20FA02F001FA03FE40EA0E0021FA02F11444C1E600BF70B54FF0FF0C4CF4E06C1CEA11541DBFD9
:400F00001CEA135594EA0C0F95EA0C0F00F0DEF82C4481EA030621EA4C5123EA4C5350EA013518BF52EA033541F4801143F4801338D0A0FB02CE4FF00005E1FB02E506F057
:400F40000042E0FB03E54FF00006E1FB03569CF0000F18BF4EF0010EA4F1FF04B6F5007F64F5407404D25FEA4E0E6D4146EB060642EAC62141EA55514FEAC52040EA5E5024
:400F80004FEACE2EB4F1FD0C88BFBCF5E06F1ED8BEF1004F08BF5FEA500E50F1000041EB045170BD06F0004646EA010140EA020081EA0301B4EB5C04C2BFD4EB0C0541EA32
:400FC000045170BD41F480114FF0000E013C00F3AB8014F1360FDEBF002001F0004170BDC4F10004203C35DA0C341BDC04F11404C4F1200500FA05F320FA04F001FA05F267
:4010000040EA020001F0004221F0004110EBD37021FA04F642EB06015EEA430E08BF20EAD37070BDC4F10C04C4F1200500FA04F320FA05F001FA04F240EA020001F00041B0
:4010400010EBD37041F100015EEA430E08BF20EAD37070BDC4F1200500FA05F24EEA020E20FA04F301FA05F243EA020321FA04F001F0004121FA04F220EA020000EBD37051
:401080005EEA430E08BF20EAD37070BD94F0000F0FD101F00046400041EB010111F4801F08BF013CF7D041EA060195F0000F18BF704703F00046520043EB030313F4801F16
:4010C00008BF013DF7D043EA0603704794EA0C0F0CEA135518BF95EA0C0F0CD050EA410618BF52EA4306D1D181EA030101F000414FF0000070BD50EA410606BF104619466C
:4011000052EA430619D094EA0C0F02D150EA013613D195EA0C0F05D152EA03361CBF104619460AD181EA030101F0004141F0FE4141F470014FF0000070BD41F0FE4141F468
:40114000780170BD70B54FF0FF0C4CF4E06C1CEA11541DBF1CEA135594EA0C0F95EA0C0F00F0A7F8A4EB050481EA030E52EA03354FEA013100F088804FEA03334FF08055E9
:4011800045EA131343EA12634FEA022245EA111545EA10654FEA00260EF000419D4208BF964244F1FD0404F5407402D25B084FEA3202B61A65EB03055B084FEA32024FF404
:4011C00080104FF4002CB6EB020E75EB030E22BFB61A754640EA0C005B084FEA3202B6EB020E75EB030E22BFB61A754640EA5C005B084FEA3202B6EB020E75EB030E22BF75
:40120000B61A754640EA9C005B084FEA3202B6EB020E75EB030E22BFB61A754640EADC0055EA060E18D04FEA051545EA16754FEA06164FEAC30343EA52734FEAC2025FEA25
:401240001C1CC0D111F4801F0BD141EA00014FF000004FF0004CB6E711F4801F04BF01430020B4F1FD0C88BFBCF5E06F3FF6AFAEB5EB030C04BFB6EB020C5FEA500C50F139
:40128000000041EB045170BD0EF0004E4EEA113114EB5C04C2BFD4EB0C0541EA045170BD41F480114FF0000E013C90E645EA060E8DE60CEA135594EA0C0F08BF95EA0C0F89
:4012C0003FF43BAF94EA0C0F0AD150EA01347FF434AF95EA0C0F7FF425AF104619462CE795EA0C0F06D152EA03353FF4FDAE1046194622E750EA410618BF52EA43067FF41E
:40130000C5AE50EA41047FF40DAF52EA43057FF4EBAE12E74FEA410212F5001215D211D56FF47873B3EB625212D94FEAC12343F0004343EA505311F0004F23FA02F018BF7D
:40134000404270474FF00000704750EA013005D111F0004008BF6FF0004070474FF00000704700BF014B1868704700BF40C1FF1F0E4B70B51E460E4C0025E41AA410A5428F
:4013800004D056F8253098470135F8E701F054FB084B094C1E46E41AA4100025A54204D056F8253098470135F8E770BD442A0000442A0000442A00004C2A000010B5431E3A
:4013C0000A44914204D011F8014B03F8014FF8E710BD03460244934202D003F8011BFAE7704700000EB400B54FF402719CB0ADF814106FF00041049107914FF6FF711DAB3B
:4014000002900690084853F8042BADF81610006802A9019300F0B2F8029B00221A701CB05DF804EB03B0704740C1FF1F0EB430B59CB01FAC4FF4017254F8045BADF81420D4
:401440000290069000F01EF80B4B03900B9300230F9314934FF6FF7307900848ADF816302A46234602A90068019400F0D7F91CB0BDE8304003B070478114000040C1FF1F82
:4014800000207047034613F8012B002AFBD1181A01387047F0B5037863B90B78002B18BF0020F0BD15F8012F62B114F8017F30469742F7D00346461C007810B14D1E5C1E74
:4014C000F0E7F0BD1846F0BD2DE9F0478E6882469E420C46914698463ED88A8912F4906F3AD02568096902236F1A656905EB450595FBF3F57B1C43449D4238BF1D46530557
:401500000FD5294600F0B4FF064698B13A462169FFF754FFA38923F4906343F08003A38113E02A4601F002F8064670B92169504600F052FF0C23CAF80030A3894FF0FF30DE
:4015400043F04003A381BDE8F08726613E44266046466561ED1BA560464528BF464649463246206800F01DFFA36800209B1BA36023681E442660BDE8F08700002DE9F04F66
:401580009DB003938B8980461C060D4616460DD50B695BB9402100F06BFF2860286118B90C23C8F80030CDE040236B610023099320238DF82930DFF89CB130238DF82A3065
:4015C00037463C4614F8013B1BB9B7EB060910D003E0252BF9D02746F3E74B46324629464046FFF771FF013000F0A780099B4B4409933B78002B00F0A08000234FF0FF3200
:4016000004930793059206938DF853301A930126052221784E4800F0B6FE671C049B38B14B4A3C46801A06FA00F018430490EFE7D90644BF20228DF853201A0744BF2B2275
:401640008DF8532022782A2A03D0079A00210A200BE0039A111D12680391002A10DA524243F00200079204900BE027463B780134303B092B03D800FB02320121F5E701B15E
:4016800007923B782E2B1ED17B782A2B0AD1039B02371A1D1B680392002BB8BF4FF0FF33059310E0002319460593781C0A2407463A780130303A092A03D804FB01210123E9
:4016C000F5E703B1059103223978224800F05BFE40B14023CBEB000003FA00F0049B013718430490397806221B487E1C8DF8281000F049FE88B1194B33B9039B073323F040
:4017000007030833039314E003AB00932A46144B04A94046AFF3008007E003AB00932A460F4B04A9404600F043FAB0F1FF3F824603D0099B5344099342E7AB895B0601D43F
:40174000099801E04FF0FF301DB0BDE8F08F00BF7A280000802800008428000000000000C91400004B1C70B50E46144602D14FF0FF3070BD9389CDB223F020039381536BAB
:40178000526883B1A36B9A4207DA23685A1E226003F8016C636801331FE0214600F0BAFD0028F2D0E3E72169236851B1994208D213F8011C8D4204D1013B01322360626077
:4017C0000CE0E36304F1440363630323A3632346226403F8466F236001236360284670BD10B50C46496B69B104F14403994201D000F0F2FD236C00206063636013B1E36BF2
:40180000236010BD23694FF0FF30236000236360A38943F02003A38110BD00002DE9F04FDFF89C9207460D46CA46ADF5257D01930023469347939E4B0DF10C08A2939D4BB2
:40184000DFF874B2CDF82081A3931478002C00F02781D9F8003023445B7803F0080303F0FF01F3B16B68002B10DD2B68DAF800001978014449780C0710D54799013301318A
:40188000479169682B6001396960EBE7A39B2946384600929847009A0028E6D0561C3246D3E7252C02F1010652D14391459153782A2B02BF1023961C43930A223178344664
:4018C000A1F13003092B06F1010605D8459B02FB0313303B4593F1E70322774800F053FD40B134460123CBEB000003FA00F0439B03434393661C2478672C16D8652C7FD235
:40190000472C07D8452C7BD2002C00F0CB80252C1ED077E05B2C51D002D8582C3ED071E0632C57D0642C3FD06CE0702C32D007D86E2C55D03AD8692C64D1002344933BE067
:40194000752C31D0782C29D0732C5BD102233FE06B68002B0DDD2B681A78944240F0A08001336A682B60479B013A01336A60479395E7A39B2946384698470028EBD0469819
:40198000002800F08F80AB8913F0400F18BF4FF0FF3089E0439B43F020034393439B43F400734393102302E00A2300E008236E2C449301DD04230BE0032309E031464046AA
:4019C00000F074FB0646439B43F040034393012349931BE0439B43F0400343930023F7E7439AD0063FF55BAF12F0010F019A479B02F104010191126814BF138013604EE75A
:401A00000523E5E7032349930A2344936B68002B03DD439B590611D518E0A39B2946384698470028F5D0AAE7479A013247926A68013A002A6A6013DD01332B602B68DAF829
:401A400000101A780A4452781207EDD4499B022B0DDC01AB2A4643A9384600F0CFF919E0A39B2946384698470028E7D087E7042B06DC01AB2A4643A9384600F025FA09E0BB
:401A80000E4B002B3FF40BAF01AB2A4643A93846AFF30080012803D002287FF400AF6EE7469801E04FF0FF300DF5257DBDE8F08F65170000E117000080280000000000005F
:401AC00044C1FF1F2DE9F04791461F460A698B6806469342B8BF1346C9F8003091F843200C46DDF8208012B10133C9F800302368990642BFD9F800300233C9F80030256878
:401B000015F0060510D104F1190A07E00123524639463046C04701301AD00135E368D9F800209B1A9D42F1DB94F843302268003318BF012392060FD5E118302081F84300D8
:401B40005A1C94F845102244023382F8431003E04FF0FF30BDE8F08704F1430239463046C0470130F4D02268D9F80050E36802F00602042A08BF5D1B2269A3680CBF25EA41
:401B8000E57500259342C4BF9B1AED184FF000091A344D4509D00123224639463046C0470130D5D009F10109F3E70020BDE8F0872DE9F04317460A7E85B06E2A98460646F6
:401BC0000C460C9B01F1430E00F0AE8011D8632A22D009D8002A00F0BB80582A40F0CA8081F84520834955E0642A1ED0692A1CD0C0E0732A00F0B08009D86F2A2ED0702AA8
:401C000040F0B8800A6842F020020A603EE0752A24D0782A3AD0ADE01A6801F14205111D1960136884F84230A8E021681A6811F0800F02D0111D196008E011F0400F02F190
:401C40000401196002D0B2F9003000E01368002B3CDA2D225B4284F8432037E021681A6811F0800F02D0111D196007E011F0400F02F10401196001D0138800E01368227E98
:401C80005C496F2A14BF0A2208221BE078225A4984F845202268186812F0800F00F104051D6003D1550601D5038800E00368D00744BF42F0200222601BB9226822F0200275
:401CC00022601022002084F8430001E049490A226568002DA56008DB206820F0040020602BB9002D7DD175460CE0002B79D07546B3FBF2F002FB1033CB5C05F8013D034604
:401D00000028F5D1082A0BD12368DA0708D5236962689A42DEBF302305F8013C05F1FF35C5EB0E0323612EE008681A6810F0800F496903D0101D1860136808E010F0400F28
:401D400002F104001860136801D0198000E0196000232361754616E01A68111D1960156800216268284600F00EFB08B1401B6060636804E004F1420584F842200123236121
:401D8000002384F84330CDF800803B4603AA21463046FFF797FE013002D14FF0FF3026E023692A4639463046C0470130F5D023689B0710D5002504F1190907E001234A46E7
:401DC00039463046C0470130E7D00135E368039A9B1A9D42F2DBE068039B9842B8BF184605E00B7804F1420584F842308AE705B0BDE8F0838B2800009C2800002DE9F84353
:401E000015468A6880460C4632B98A69002A0CBF01224FF0FF328A602268DFF8A890D10658BF1A684FF000065EBF111D19601768A069F8B923680136DA065EBF2B681B78BD
:401E40003B702A686B6802F101022A60A26803F1FF3302F1FF326B6058BF0137A260E2B1002BE5DCD4F880312946404698470028DED012E0012806D12B681A7863699B5CE2
:401E8000002BD7D119E0022807D12B68D9F800201B7813445B781B07CCD5236813F0100305D1E2680132E260A26902B13B70236900201E442661BDE8F883002EEDD1BDE86B
:401EC000F88300BF44C1FF1F2DE9F04F0C469A46724B87B08346164693E8070003ABA76883E807006E4BA1696E4A04F11C09032918BF1A467B1EB3F5AE7F84BF40F25D13E9
:401F0000A360236888BF6FF4AE7543F4506323604B4600928CBF7F1900274FF000083168019303AB53F828000222097800F02BFA019B002833D0B8F1010F0BD162682AB954
:401F400008226260226842F400722260226822F4A0620CE0B8F1020F0AD1226802F4C061B1F5007F1BD11021616042F480722260A268511EA16092B132685D1C511C316082
:401F800012781A707368013B002B736006DCD4F88031314658469847002841D12B4608F10108B8F1030FBAD162680AB90A22626062683D496069891A019300F077F8019BEC
:401FC0004FF000081D46A36863B3316860690A78805C38B3302A226808D1100506D508F1010857B10133013FA36006E022F4106222600B78013505F8013C7368013B002B18
:40200000736003DD33680133336005E0D4F8803131465846984728B9A368013BA360D2E74FF000082368D9050CD54D4508D915F8011C6F1ED4F87C313246584698473D46A5
:402040004D4527D0226812F010021BD12A70636849465846009EB0472268DAF8003012F0200F07D1D20705D51A1DCAF800201B68188004E01A1DCAF800201B681860E36867
:402080000133E3602369C9EB050545441D442561002000E0012007B0BDE8F08FB0280000192200000D210000CC28000070B50B78441E5E2B13BF4A1C8A1C4B78002108BFA2
:4020C000012100F1FF0504F8011FAC42FBD10BB9501E70BD81F001041146C4540D784A1C2D2D06D05D2D0FD00DB12B46F4E7084670BD4E785D2EF8D0B342F6DC023101335F
:402100009E42C454FBDCE9E7104670BD2DE9F0470F4680463F48D0F800903D4615F8014B09EB0400407800F0080000F0FF0608B12F46F2E72D2C03D1BD1C7C78012603E0B2
:402140002B2C04BF7C78BD1C13B1102B0AD15BE0302C57D1287800F0DF0058284DD16C7810230235002E14BF4FF0004C6FF0004CBCFBF3FA0027384603FB1ACC09EB040E1A
:402180009EF801E01EF0040F01D0303C0BE01EF0030E1BD0BEF1010F0CBF4FF0370E4FF0570ECEEB0404A34210DDB7F1FF3F0AD0504506D801D1644503DC03FB004001271D
:4021C00001E04FF0FF3715F8014BD7E77B1C0CD1002E4FF0220314BF4FF000406FF00040C8F800302AB9BDE8F08706B1404272B107B1691E1160BDE8F0873024002BB1D163
:402200000823AFE70A23ADE7302CA3D0AAE7BDE8F08700BF44C1FF1F2DE9F0470E4680463B48D0F80090354615F8014B09EB0400407800F0080000F0FF0708B12E46F2E704
:402240002D2C03D1B51C7478012703E02B2C04BF7478B51C13B1102B0AD153E0302C4FD1287800F0DF00582845D16C78102302354FF0FF3CBCFBF3FC03FB0CFA00266FEA13
:402280000A0A304609EB040E9EF801E01EF0040F01D0303C0BE01EF0030E1AD0BEF1010F0CBF4FF0370E4FF0570ECEEB0404A3420FDD002E08DB604506D801D1544503DCA3
:4022C00003FB0040012601E04FF0FF3615F8014BD8E7002E07DA2223C8F800304FF0FF302AB9BDE8F08707B1404272B106B1691E1160BDE8F0873024002BB9D10823B7E761
:402300000A23B5E7302CABD0B2E7BDE8F08700BF44C1FF1F2DE9F0410C46496B04F1440399421AD14FF4806100F0A2F818B94FF0FF30BDE8F0814FF48063A36394F84630E6
:40234000606380F8FF3394F8453000F2FD30437094F844300370206012E0A66B77003A4600F0E4F805460028E1D000EB0608014632464046FFF722F8C4F800806563A763E4
:402380000020BDE8F08110B5C9B202449042034605D01C7801308C42F8D1184610BD002010BD884210B501EB020301D8421E0BE09842FBD28118D21AD34204D013F8014DEB
:4023C00001F8014DF8E710BD994204D011F8014B02F8014FF8E710BD38B50546002944D051F8043C0C1F002BB8BFE41800F0D4F81E4A1368114613B96360146030E0A3423B
:402400000DD92268A018834201BF18685B681218226063600C6023E0A24203D813465A68002AF9D118681918A1420BD12168014458188242196013D1106852680144196041
:402440005A600DE002D90C232B6009E021686018824201BF106852680918216062605C602846BDE8384000F098B838BD84C1FF1F70B5CD1C25F0030508350C2D38BF0C2574
:40248000002D064601DBA94202D90C23336046E000F082F8234B1C681A462146A1B10B685B1B0ED40B2B03D90B60CC18CD501EE08C420BBF63684B681360636018BF0C46E8
:4024C00015E00C464968E9E7174C23681BB9304600F052F820602946304600F04DF8431C18D0C41C24F00304A0420DD12560304600F053F804F10B00231D20F00700C31A9C
:402500000ED05A42E25070BD211A304600F034F80130EBD10C233360304600F03EF8002070BD00BF84C1FF1F80C1FF1FF8B5074615460E4621B91146BDE8F840FFF798BFD8
:402540001AB9FFF749FF2846F8BD00F027F885420ED929463846FFF78BFF044650B131462A46FEF72BFF31463846FFF735FF01E03046F8BD2046F8BD38B5064C00230546B9
:4025800008462360FEF752F8431C02D1236803B12B6038BD68CEFF1F7047704751F8040C0028BEBF091851F8043CC0180438704700000000264750524D43000025730D0A97
:4025C0000A0000004750524D432C256C662C412C256C662C25632C256C662C25632C256C662C2C256C662C2C2C412A3634000000496E697469616C697A696E67200D0A002D
:4026000053746172742053657269616C20746F20554152542121200D0A00000050536F4320354C50205541525420436F6D6D756E69636174652054657374200D0A00000006
:4026400048656C6C6F20576F726C6421200D0A3126732069732073656E642075626C6F7820636F6D6D616E64200D0A332069732044495341424C455F54454C49545F4753B9
:40268000565F4753415F474C4C5F5654470D0A3420697320454E41424C455F54454C49545F4753565F4753415F474C4C5F565447200D0A35206973205541525420466972F1
:4026C0007374204D6574686F640D0A362069732055415254205365636F6E64204D6574686F640D0A0000000053656E64696E672047505320436F6E66696720474C4C203022
:40270000202E2E2E0D0A000024505542582C34312C312C303030372C303030332C393630302C302A35430D0A0000000024505542582C34302C474C4C2C302C302C302C3027
:402740002A35430D0A00000053656E64696E672047505320436F6E66696720474C4C2031202E2E2E0D0A000024505542582C34302C474C4C2C312C312C302C302A35430D28
:402780000A00000024504D544B3331342C302C312C302C312C302C302C302C302C302C302C302C302C302C302C302C302C302C302C302A32380D0A0044495341424C455F43
:4027C00054454C49545F4753565F4753415F474C4C5F56544700000024504D544B3331342C312C312C312C312C312C352C302C302C302C302C302C302C302C302C302C307E
:402800002C302C302C302A32380D0A00454E41424C455F54454C49545F4753565F4753415F474C4C5F5654470D0A00005365636F6E64204D6574686F640D0A00005100409E
:402840001000205100401000405100403000C05100401000F0510040100000000140001000140140000800400140000A004C014000020050014020004300232D302B20000D
:40288000686C4C006566674546470030313233343536373839414243444546003031323334353637383961626364656600000000CE280000D1280000D4280000412D4661F0
:4028C0002D66383930313233343536375D002B2D00303000785800002020202020202020202828282828202020202020202020202020202020202020881010101010101033
:4029000010101010101010100404040404040404040410101010101010414141414141010101010101010101010101010101010101010110101010101042424242424202F7
:4029400002020202020202020202020202020202020202101010102000000000000000000000000000000000000000000000000000000000000000000000000000000000D1
:402980000000000000000000000000000000000000000000000000000000000000000000000000000000000000000000000000000000000000000000000000000000000017
:4029C00000000000000000000000000000000000000000000000000000000000000000000000000000000000000000000000000000000000000000000000000000000000D7
:402A00000000000000000000000000000000000000000000000000000000000000000000000000000000000000000000000000000000000000000000F8B500BFF8BC08BCB2
:402A40009E4670474D000000A9060000F8B500BFF8BC08BC9E46704729000000702A0000C8C0FF1F80000000280D0000000000000000000070CEFF1F0000E02EC05D00009B
:402A80001800000000366E0100000000D8290000F8290000182A00000000000000000000000000000000000078280000000000000000000000000000000000000000000055
:402AC00000000000000000000000000000000000000000000000000000000000000000000000000000000000E0C0FF1FD72800000000000000000000000000000000000019
:402B00000000000000000000000000000000000000000000000000000000000000000000000000000000000000000000000000000000000000000000000000000000000095
:402B40000000000000000000000000000000000000000000000000000000000000000000000000000000000000000000000000000000000000000000000000000000000055
:402B80000000000000000000000000000000000000000000000000000000000000000000000000000000000000000000000000000000000000000000000000000000000015
:402BC00000000000000000000000000000000000000000000000000000000000000000000000000000000000000000000000000000000000000000000000000000000000D5
:020000040001F9
:0200000480007A
:400000000352004003640040036500404E0201402D0301405204014044050140560601404A0701404F1401404D1501406B1601404717014002400140014101400142014058
:4000400003430140114901400550014001510140181019021C21827684728738840F8538860F010305F3070C09FF0D9C0F431380150219041F0C219F2320258129082F63B3
:400080003110330F37EC3BA83F015602571359045B045F01813C820183C185BC874289FF93C3951899089D10A104A704AA01ADE7AF18B158B320B401B51FB798BA08BB2289
:4000C000BE10BF04C034C102C205C401C60EC70CC814C9FFCAFFCBFFCC62CDA0CEF0CF41D00CD804D904DA04DC11DD01DF01E640E702E910EA30EB10ED10EE10EF120002AC
:40010000100818101B202006210122252554260129482A012DA12F10308031183302350236043760381439223DAA3E804021411043024801500853405E026E056F157520D3
:400140007650772084208540C008C402CAFBCCFFCEF7D00FD208D680040C0673087F0E330F011073120C143318221B011C0F1E7020082404280C2C11303034403501360F5F
:4001800038203A803F1056025712580459045B045C015D105F0180028101841088208E488F02904D923093029402963098319A4CA071A20CA87DB070B102B203B301B438E9
:4001C000B604B888BA20BF05C035C102C204C401C6CEC80CC9FFCAFFCBFFCC62CDA0CEF0CF41D00CD804D904DA04DF01E640E702E910EA30EB10ED10EE10EF12001002205A
:40020000030205A0065008210A220C020D200E2010A012011320168419411B201C081D261E2223042420260228012940332036013B803D013F804516460447404D8057502D
:400240005A086808694470A0711873209010920F93809401972099209AD09B159DDE9E01A154A2A0A480A529A604A702A904AA80AB60AD21C0F7C27FC45FCC84CE98D0F089
:40028000D210D6020103030804010602070309030C010E020F0311D0120415021604170419801B101C031F0321D02401250126022704280129202A022B402D033004310CA2
:4002C00033C035303603370339283E013F054002460449FF4A0F4BFF4C404D204EF04F055008580459045A045F01604061A862406320831C860487A38D618E0C8F8E900127
:40030000956196029796995C9B83A160A380AF08B001B11AB208B3F0B50FB606BB2ABE41D418D604D804D904DB04DC01DD10DF0102010320050407010A200B400D020E0105
:400340000F201714180119081A801D401F0120402110222523102610276228A02A802B202C422F18322434023540362438403A063C083DA247205684570859C162806384DD
:40038000834086129020914492059304940195019620972099059B159C209D8A9E019F40A00EA152A282A310A501A604A702A802A904C0A5C2BCC460CAF9CCF6CEFBD020DB
:4003C000D601D80D0414060909010C0A0E1114011606243F283F2C2030203207330134183F044063410146EB47C0482C49FF4AFF4BFF4EF04F44500C5401580459045A0443
:400400005B045C015F0166C06A406B028010813D83C085CD87308A408C098E10902091C092039330945095A8960C9754981C99CD9A429B309C149F01A240A302A44CA55543
:40044000A611A7A8A90DAA80ABF0B01FB103B240B3FCB480B620BE44D418D804D904DB04DF0102010320041006860A200D900E400F10100811441490150216081A201B22B0
:400480001D101E401F8422042501260427402E202F5034203604374138203E0540124B1050305181580159605A085F026706808081208201838085408608871488218D1225
:4004C0009164920593969620972098329AA69B039C809D029E099F40A008A501A604A722AA40B110B202B305C0D5C2F4C477CAE0CCF0CEC4D00AD204D68FD8300049010331
:4005000002B603140403050A06FC071408240A491513170C189219131A491B041C1F1EE020E0221C231524E3261C270828E32A1C330F36FF37103B083E403F40406441023A
:4005400045E0460B47C0482649FF4AFF4BFF4EF04F44500C5401580459045A045B045C105D115F0166C06A406B02842C85DC8643872289098BD08F039510960897AC9871B5
:40058000990C9A0E9B719F20A080A114A213A60CA871A910AA06AB40B030B11FB2C0B40FB5E0B80ABA20BB20BE01C004C704C9FFCA07CBFFCC40CD20CEF0CF05D008D80499
:4005C000D904DA04DC11DD01DF01E040E1A8E240E3200004050406280740080809280E0910A012581420171518641F40212022202340264828082B802CA030803120320862
:40060000362838243A103B403C043F0240404520464048804D014E08510857815D115E805F08916492859312950196209760981299049A869B1F9C809D029E01A008A20244
:40064000A501A604A722AC52AE05B410B708C074C2C6C47ECAC5CC6ECECED0A1D220D6F03120CC10A520A5208120A520E22002200E4053015E02824083018620A201AA0124
:40068000C010C220D480D680E020E440E620EE80000308030A0310031A030003000B0B00000000001200219292001200000000000000000000000000000000000000000079
:4006C00000000000000000000000000000000000000000000000000000000000000000000000000000000000000000000000000000000000000000000000000000000000FA
:4007000000000000000000000000000000000000000000000000000000000000000000000000000000000000000000000000000000000000000000000000000000000000B9
:400740000000000000000000000000000000000000000000000000000000000000000000000000000000000000000000000000000000000000000000000000000000000079
:400780000000000000000000000000000000000000000000000000000000000000000000000000000000000000000000000000000000000000000000000000000000000039
:0200000490006A
:0400000000004005B7
:0200000490105A
:04000000BC90ACAF55
:0200000490303A
:020000007E6E12
:0200000490402A
:4000000000000000000000000000000000000000000000000000000000000000000000000000000000000000000000000000000000000000000000000000000000000000C0
:400040000000000000000000000000000000000000000000000000000000000000000000000000000000000000000000000000000000000000000000000000000000000080
:0200000490501A
:0C00000000012E15906900012E270ED77C
:00000001FF