:400000000040002011000000950400009504000008B5044B1A6803F53F5302331A6000F059FA00BFFA46004010B5054C237833B9044B13B10448AFF300800123237010BD32
:4000400038C1FF1F00000000D4090000084B10B51BB108490848AFF300800848036803B910BD074B002BFBD0BDE81040184700BF000000003CC1FF1FD4090000C8C0FF1FA8
:400080000000000010B5244900F0CEFB00243FE0631E092B37D8DFE803F0050A0F14191E23282D3201461D4800F0B5FB2BE001461B4800F0B0FB26E001461A4800F0ABFBA0
:4000C00021E00146184800F0A6FB1CE00146174800F0A1FB17E00146154800F09CFB12E00146144800F097FB0DE00146124800F092FB08E00146114800F08DFB03E001462B
:400100000F4800F088FB0449002000F08DFB01340028BDD110BD00BFD809000060C3FF1FE0C5FF1FE0C3FF1FE0C4FF1FE0C2FF1F60C1FF1F60C4FF1F60C2FF1F60C5FF1F6D
:40014000E0C1FF1F30B5A1B062B600F04DFA00F0CBFA334800F0E2FA324800F0DFFA324800F07EFA314800F0D9FA002400F060FA0028FBD000F046FA054600F0C3FA20AB8A
:40018000234403F8805C01340A2DEFD120AB1C44002304F8803C684600F0C0FA6846FFF771FF234800F0BAFA224C204600F0B6FA214800F0B3FA204600F0B0FA1F4800F083
:4001C000ADFA204600F0AAFA1D4800F0A7FA204600F0A4FA1B4800F0A1FA204600F09EFA194800F09BFA204600F098FA174800F095FA204600F092FA154800F08FFA2046CE
:4002000000F08CFA134800F089FA204600F086FA114800F083FA114800F080FAA5E700BFDC090000F0090000080A00003C0A000060C3FF1FD8090000E0C5FF1FE0C3FF1FF4
:40024000E0C4FF1FE0C2FF1F60C1FF1F60C4FF1F60C2FF1F60C5FF1FE0C1FF1F480A0000FEE700BFF0B40022174611E050F82760F3B226F0FF0608E001EB420511F812402A
:400280006D78A5550132013BDBB2002BF4D10137122FEBD9F0BC7047064B1B78DBB203F00701054A11701B09013213704422034B1A707047CF0100496E580040765800409B
:4002C00008B50A46002100F09EFA08BD38B54FF49C73274A138019250232157002321380244B1D70022302F51F72137008214FF04022117002F5007213701F4B1B78DBB295
:4003000002F2A14213704FF4E1621C4B1A8041F25122023B1A8000240CE0194B1B7803F0010343EA440404F003044FF4F07000F023FA013D0DB1032CEFD115B90320FFF76F
:400340008FFF104B4FF480721A8007221A7000220D490A704820023108701A700222033B1A700A4A137843F00303137038BD00BF80400040864000400B0100492242004049
:40038000254200400440004006400040A243004008B500F02DFA08BD38B572B6304A137843F00403137000240CE02E4D630019194A0011462A44084691882858FFF780FF6C
:4003C0000134E4B20A2CF0D900240BE02549A3001819420088188022816C406CFFF7D8FF0134E4B2002CF1D01F494FF09040FFF739FF1E4A137843F0020313701032137820
:4004000043F0020313701A4C237843F040032370A2F58632513A137843F010031370082214491548FFF7B4FF0A2214491448FFF7AFFF144A137843F008031370124D612326
:400440002B70FFF743FF81232B7001220F4B1A70FFF722FF0E2221460D48FFF799FF38BDE84600404C0A00004C00004803500140A0430040C005004812510040C805004809
:4004800030510040224300400048004004000840B043004008B500F07FF903680C2B00D1FEE7FEE708B5094B1A681044084BC31A802B02DC054B186005E000F06DF90C239B
:4004C00003604FF0FF32104608BD00BFCCC0FF1F68C6FF1F08B5104E104D16E029686B68AC68002204E051F8040B43F8040B0432A242F8D1E868002203E0002143F8041B18
:4005000004328242F9D11035013E002EE6D100F049F9FFF717FEFEE701000000C00A000008B5104A104B1A60104A136843F40073136000230AE0032B03D80D4A52F82310D9
:4005400000E00C490C4A42F8231001332F2BF2D90A4B1A780A4B1A70074A0A4B1A60FFF71BFF08BD0004FA050CED00E014ED00E0000000009504000000C0FF1FBC760040C9
:40058000C0C0FF1F08ED00E07222084B1A70202201331A700622A3F5AF731A70472210331A7000224D331A70704700BF8465004010B500F0E9F804460A4A137843F02003D5
:4005C00013700132137843F010031370A2F20112137843F01003137000F0B2F8204600F0D7F810BD9465004008B5054B1B7823B9FFF7CAFF0122024B1A70FFF7D9FF08BD69
:4006000054C1FF1F084B1B78DBB213F0200F06D0064A1078C0B213F01E0F02D17047002070470020704700BF6565004047650040044B1B7813F0200F01D0012070470020C8
:40064000704700BF65650040034B1B7813F0040FFAD1024B18707047646400404464004038B5074B1B782BB938BDFFF7EDFF0134A4B201E005460024285D0028F5D138BDEC
:4006800054C1FF1F7222084B1A70202203F580731A700622A3F261131A70472210331A70002250331A7070478664004010B500F06BF804460B4A137843F02003137002F5CC
:4006C0008072137843F010031370A2F20112137843F01003137000F041F8204600F058F810BD00BF9664004008B5054B1B7823B9FFF7C8FF0122024B1A70FFF7D7FF08BD60
:4007000056C1FF1F034B1B7813F0040FFAD1024B18707047656400404664004038B5074B1B782BB938BDFFF7EDFF0134A4B201E005460024285D0028F5D138BD56C1FF1F3E
:40074000054A137843F0010313701032137843F001031370704700BFA2430040054A137843F0020313701032137843F002031370704700BFA24300400230800803D000BFBF
:4007800001380046FCD17047EFF3108072B6704780F31088704700BF014B1868704700BF30C1FF1F0E4B70B51E460E4C0025E41AA410A54204D056F8253098470135F8E7AE
:4007C00000F06CF9084B094C1E46E41AA4100025A54204D056F8253098470135F8E770BDA80A0000A80A0000A80A0000B00A000010B5431E0A44914204D011F8014B03F807
:40080000014FF8E710BD03460244934202D003F8011BFAE77047034611F8012B03F8012B002AF9D170470000174B2DE9F0411D680646AC6D0F46FCB9502000F053F8A86532
:400840008460AB6D046044601C61DC60AB6D9C615C61AB6DDC629C62AB6D5C631C63AB6DDC639C63AB6D5C641C64AB6DDC649C64AB6D1C77AB6D5C62AA6D39463046BDE807
:40088000F041012300F002B830C1FF1FF0B548B9106838B9F0BD17F8016B5EB1B542FAD12BB1204604460F4614F8015BF3E714600370F0BD4DB915602846F0BD17F8016B5A
:4008C000B54207D0002EF9D11C4623460F4613F8015BF3E715B10021217000E02B461360F0BD0000024B0146186800F003B800BF30C1FF1F70B5CD1C25F0030508350C2DBA
:4009000038BF0C25002D064601DBA94202D90C23336046E000F05CF8234B1C681A462146A1B10B685B1B0ED40B2B03D90B60CC18CD501EE08C420BBF63684B6813606360AA
:4009400018BF0C4615E00C464968E9E7174C23681BB9304600F02CF820602946304600F027F8431C18D0C41C24F00304A0420DD12560304600F02DF804F10B00231D20F064
:400980000700C31A0ED05A42E25070BD211A304600F00EF80130EBD10C233360304600F018F8002070BD00BF5CC1FF1F58C1FF1F38B5064C0023054608462360FFF772FD4D
:4009C000431C02D1236803B12B6038BD60C6FF1F70477047000000002C000000496E697469616C697A696E672E2E2E0D0A00000047657474696E6720475053204461746126
:400A00002E2E2E0D0A00000024504D544B3331342C302C312C302C302C302C302C302C302C302C302C302C302C302C302C302C302C302C302C302A32380D0A004750532093
:400A4000646174613A0D0A000D0A0000005100401000205100401000405100403000C05100401000F05100401000000001400010001401400002801601408005004001409A
:400A8000000A004C014000020050014020000000001601404005004880004300F8B500BFF8BC08BC9E4670474D00000021050000F8B500BFF8BC08BC9E46704729000000AB
:400AC000D00A0000C8C0FF1F70000000300500000000000068C6FF1F00000000000000000000000000000000000000000000000000000000000000009A0A000000000000E1
:400B00000000000000000000000000000000000000000000000000000000000000000000000000000000000000000000000000000000000000000000D0C0FF1F0000000007
:400B40000000000000000000000000000000000000000000000000000000000000000000000000000000000000000000000000000000000000000000000000000000000075
:400B80000000000000000000000000000000000000000000000000000000000000000000000000000000000000000000000000000000000000000000000000000000000035
:400BC00000000000000000000000000000000000000000000000000000000000000000000000000000000000000000000000000000000000000000000000000000000000F5
:400C000000000000000000000000000000000000000000000000000000000000000000000000000000000000000000000000000000000000000000000000000000000000B4
:020000040001F9
:0200000480007A
:40000000035200400364004003650040660401403A0501405E0601404B070140481401404C1501402D1601404817014002400140014101400142014001430140044801407A
:40004000104901400450014001510140180219101C21840F850F867284728538863804090506061007280D260F18100C1211141C1602172A19141A031B281C101E0C20101C
:4000800021262308241427102901311E3301341F37203B023F4440564101450B46E0470C481949FF4AFF4BFF4EF04F44500C5401580459045A045B045F0166C06A406B02D6
:4000C0008061828E83018520886189288A968D198E1C8F2291129320945C9683970699219B189EA3A060A280A938AA08AB05AF01B01AB20FB4F0B53EB701BA2ABF40C002ED
:40010000C704C9FFCA07CBFFCC40CD20CEF0CF05D008D401D804D904DA04DB04DC11DD11DF01E040E1A8E240E320010804800511070108220A260D080F0210A016841A04C7
:400140001C401D191F08224523402640270429082A122E802F0A30083104321034083510370538083B403C483F22400241404202451048284B4050045210540455015604F6
:400180005701580159205A885E885F11C0D4C2AFC45CCA37CCE6CEFAD028D20CD6FF0110050809180F23115C1321155C17221802197F1F04216723182401250428012C019A
:4001C00030013138331F340237403B2A3E103F404064410545EE46B047C0482B49FF4AFF4BFF4EF04F44500C56025713580459045A045B045C115D115F0166C06A406B02EF
:400200008007840286048D088F13910893159610970999169B099C079F02A408A601A716A920B010B20CB320B403B51BB707B828BBA0BE10BF04C002C540C9FFCA07CBFF6D
:40024000CC40CD20CEF0CF05D008D804D904DA04DF01E040E1A8E240E320000A0A020B200F081020154017141804190A1D021E48200A214822102408261927022808290850
:400280002E082F40308031043211365939803A043B043E623F044004450148A049044D204F49571259305F02610163406D506E046F14763678107A089202948095809620D2
:4002C0009701982899119D0CA101A309A480A510A604A712A804A920B001B210B312C00CC245C4E4CAC6CCFFCEF8D084D230D680012404730518060C081F09080A600C5CFF
:400300000E230F6311401263140115FF1803191C1BE11C021D102008230424042560280C29E72B182C7F2D1C2FE23010311F322C340F3560364C378039803A283B0A3E016E
:4003400056025713580459045B045F01851F890A8BD18E019501972699149B49A402A91FAA01B160B201B318B507B602B780BE44BF01D418D604D804D904DB04DC10DF01FE
:4003800000040202030A070208100A0B0B6010A1132014201520180419611A201B081F44210C2222230226502758281029222B022D103080310832113718386839023B409B
:4003C0003E043F2059015C02660267096805690470B4732078087908808082088310850186028750880389088A2090409130920D930195049720982099029C889D609E0844
:400400009F50A405A650AF48C087C20FC46FCA2FCC6FCE6FD681D8B08080830184E79421964A98029A159C449E2AA4E7AF01B080B218B407B660B701BE04BF40C064C102C1
:40044000C205C403C6E0C7C0C828C9FFCAFFCBFFCC62CDA0CEF0CF41D00CD804D904DA04DF01E640E702E910EA30EB10ED10EE10EF12000A040806460A090B200C100D02D6
:400480000E22110414801610171018501A091D241F422301248025102608270129402C202D802F0A30043208351538023A403B803F0640584502474849604C044D804F0408
:4004C00050015110542058025B015D0164068521900891109204948097A0983099139A169E08A102A201A309A510A640A908C0FCC2F7C474CA78CCE0CEC1D0D7D23CD6805B
:40050000D8303040CC109C409C409C409A049C40AA04EA8003400F40560463108340844087509A049C40C010C220D440D840E210E4C0E61000030A0310031A03000300005D
:40054000F3200C01FF00000404000000080000000013E300C30000082C13D3000F00F000410000000C00000882020010000000042C301008C0030F04082280000000005445
:4005800034060500010CE00009FFFFFF62A0F0410C0000001800000004040404111100010000000000004002001030100010101200000000000000000000000000000000BB
:4005C000000B0B000000000012002192920012000000000000000000000000000000000000000000000000000000000000000000000000000000000000000000000000007C
:4006000000000000000000000000000000000000000000000000000000000000000000000000000000000000000000000000000000000000000000000000000000000000BA
:40064000000000000000000000000000000000000000000000000000000000000000000000000000000000000000000000000000000000000000000000000000000000007A
:40068000000000000000000000000000000000000000000000000000000000000000000000000000000000000000000000000000000000000000000000000000000000003A
:4006C00000000000000000000000000000000000000000000000000000000000000000000000000000000000000000000000000000000000000000000000000000000000FA
:0200000490006A
:0400000000004005B7
:0200000490105A
:04000000BC90ACAF55
:0200000490303A
:020000009171FC
:0200000490402A
:4000000000000000000000000000000000000000000000000000000000000000000000000000000000000000000000000000000000000000000000000000000000000000C0
:400040000000000000000000000000000000000000000000000000000000000000000000000000000000000000000000000000000000000000000000000000000000000080
:0200000490501A
:0C00000000012E15906900012E1B21DA72
:00000001FF