:400000000040002011000000D1030000D103000008B5044B1A6803F53F5302331A6000F0F7F900BFFA46004010B5054C237833B9044B13B10448AFF300800123237010BD1F
:4000400048C1FF1F0000000010110000084B10B51BB108490848AFF300800848036803B910BD074B002BFBD0BDE81040184700BF000000004CC1FF1F10110000C8C0FF1F00
:400080000000000010B51A4900F0DCFB00242BE0012C05D10A220146164800F0C0FB1EE0032C05D10B220146134800F0B8FB16E0052C05D10C220146104800F0B0FB0EE0DB
:4000C000072C05D1062201460D4800F0A8FB06E0092C04D1072201460A4800F0A0FB0449002000F0AFFB01340028D1D110BD00BF1411000084C1FF1F90C1FF1F78C1FF1F83
:4001000070C1FF1F9CC1FF1F10B5C2B062B6012000F0E2FA00F082FA00F004FA1E4800F097FA4FF4FA7000F0C1FA1C4800F090FA1B4800F033FA002400E0002400F016FA9A
:400140000028FBD000F0FCF90A2801D07F2C1DD142AB1C44002304F8803C0622114922A800F048FB0028E8D122A8FFF78BFF0E4B01930E4B00930E4B0E4A802102A800F074
:4001800007FB02A800F064FA0024D7E742AB234403F8800C0134D1E7181100002C110000441100007811000084C1FF1F78C1FF1F90C1FF1F80110000FEE700BFF0B4002233
:4001C000174611E050F82760F3B226F0FF0608E001EB420511F812406D78A5550132013BDBB2002BF4D101370F2FEBD9F0BC7047064B1B78DBB203F00701054A11701B09E4
:40020000013213704422034B1A707047CF0100496E5800407658004008B50A46002100F0AEFA08BD38B54FF41C73274A138019250232157002321380244B1D70022203F2C5
:400240007A231A7008224FF040231A70042203F500731A701E4B1B78DBB21E4A137040F608721D4B1A8041F25122023B1A8000240CE01A4B1B7803F0010343EA440404F0DB
:4002800003044FF4F07000F033FA013D0DB1032CEFD115B90320FFF78FFF114B4FF480721A8007221A7000220E490A704820023108701A700222033B1A700B4A137843F0AA
:4002C0000303137038BD00BF804000408640004089010049A146004022420040254200400440004006400040A243004008B500F03BFA08BD38B572B6284A137843F0040354
:40030000137000240CE0264D630019194A0011462A44084691882858FFF77EFF0134E4B2092CF0D91F494FF09040FFF747FF1E4A137843F0020313701032137843F002038A
:4003400013701A4C237843F040032370A2F58632513A137843F010031370082214491548FFF7C4FF0A2214491448FFF7BFFF144A137843F008031370124D61232B70FFF76E
:4003800051FF81232B7001220F4B1A70FFF730FF0E2221460D48FFF7A9FF38BDE8460040AC1100004000004803500140A043004070050048125100407805004830510040B3
:4003C000224300400048004004000840B043004008B500F09DF903680C2B00D1FEE7FEE708B5094B1A681044084BC31A802B02DC054B186005E000F08BF90C2303604FF03F
:40040000FF32104608BD00BFCCC0FF1FA8C1FF1F08B5104E104D16E029686B68AC68002204E051F8040B43F8040B0432A242F8D1E868002203E0002143F8041B0432824245
:40044000F9D11035013E002EE6D100F067F9FFF75BFEFEE7010000004412000008B5104A104B1A60104A136843F40073136000230AE0032B03D80D4A52F8231000E00C4971
:400480000C4A42F8231001332F2BF2D90A4B1A780A4B1A70074A0A4B1A60FFF72BFF08BD0004FA050CED00E014ED00E000000000D103000000C0FF1FBC760040C0C0FF1FD6
:4004C00008ED00E07222084B1A70202203F580731A700622633B1A70472210331A70002251331A70704700BF8764004010B500F007F904460A4A137843F02003137002F5FA
:400500008072137843F010031370023A137843F01003137000F0AEF8204600F0F5F810BD9764004008B5054B1B7823B9FFF7CAFF0122024B1A70FFF7D9FF08BD64C1FF1FF9
:40054000084B1B78DBB213F0200F06D0064A1078C0B213F01E0F02D17047002070470020704700BF6765004047640040044B1B7813F0200F01D0012070470020704700BF45
:4005800067650040034B1B7813F0040FFAD1024B18707047656500404565004038B5074B1B782BB938BDFFF7EDFF0134A4B201E005460024285D0028F5D138BD64C1FF1FDA
:4005C0007222074B1A70202201331A700622613B1A70472210331A7000224F331A7070478564004010B500F08BF804460A4A137843F0200313700132137843F01003137038
:40060000023A137843F01003137000F041F8204600F07AF810BD00BF9564004008B5054B1B7823B9FFF7CCFF0122024B1A70FFF7D9FF08BD66C1FF1F034B1B7813F0040F6E
:40064000FAD1024B18707047646400404464004038B5074B1B782BB938BDFFF7EDFF0134A4B201E005460024285D0028F5D138BD66C1FF1F054A137843F002031370103247
:40068000137843F002031370704700BFA2430040054A137843F0010313701032137843F001031370704700BFA243004010B5044605E0084B186800F01BF8A4F50044B4F553
:4006C000004FF6D8034B586800FB04F000F010F810BD00BFD0C0FF1F044A137803F07F03C001C0B218431070704700BF305100400230800803D000BF01380046FCD17047CC
:40070000EFF3108072B6704780F31088704700BF014B1868704700BF40C1FF1F0E4B70B51E460E4C0025E41AA410A54204D056F8253098470135F8E700F072FD084B094C1A
:400740001E46E41AA4100025A54204D056F8253098470135F8E770BD2C1200002C1200002C1200003412000010B5431E0A44914204D011F8014B03F8014FF8E710BD03460F
:400780000244934202D003F8011BFAE7704700000CB430B5164B0C1E9DB01D6804DA8B232B604FF0FF301EE04FF40273ADF814300CBF234604F1FF33049307934FF6FF7334
:4007C00002900690ADF81630209A21AB02A92846019300F0A1F9431CBCBF8B232B6014B1029B00221A701DB0BDE8304002B0704740C1FF1F30B582B1451E013915F8013F9C
:4008000011F8014FA34206D1EC431444E04201D0002BF3D11C46181B30BD104630BD034610B542B111F8014B013A03F8014B002CF7D11A4400E010BD934202D003F8014BB0
:40084000FAE710BD174B2DE9F0411D680646AC6D0F46FCB9502000F053F8A8658460AB6D046044601C61DC60AB6D9C615C61AB6DDC629C62AB6D5C631C63AB6DDC639C63E6
:40088000AB6D5C641C64AB6DDC649C64AB6D1C77AB6D5C62AA6D39463046BDE8F041012300F002B840C1FF1FF0B548B9106838B9F0BD17F8016B5EB1B542FAD12BB12046EE
:4008C00004460F4614F8015BF3E714600370F0BD4DB915602846F0BD17F8016BB54207D0002EF9D11C4623460F4613F8015BF3E715B10021217000E02B461360F0BD000062
:40090000024B0146186800F04FB800BF40C1FF1F38B50546002944D051F8043C0C1F002BB8BFE41800F0C1FB1E4A1368114613B96360146030E0A3420DD92268A01883423C
:4009400001BF18685B681218226063600C6023E0A24203D813465A68002AF9D118681918A1420BD12168014458188242196013D110685268014419605A600DE002D90C2358
:400980002B6009E021686018824201BF106852680918216062605C602846BDE8384000F085BB38BD6CC1FF1F70B5CD1C25F0030508350C2D38BF0C25002D064601DBA942E8
:4009C00002D90C23336046E000F06FFB234B1C681A462146A1B10B685B1B0ED40B2B03D90B60CC18CD501EE08C420BBF63684B681360636018BF0C4615E00C464968E9E74B
:400A0000174C23681BB9304600F016FB20602946304600F011FB431C18D0C41C24F00304A0420DD12560304600F040FB04F10B00231D20F00700C31A0ED05A42E25070BDE7
:400A4000211A304600F0F8FA0130EBD10C233360304600F02BFB002070BD00BF6CC1FF1F68C1FF1F2DE9F0478E6882469E420C46914698463ED88A8912F4906F3AD0256853
:400A8000096902236F1A656905EB450595FBF3F57B1C43449D4238BF1D4653050FD52946FFF782FF064698B13A462169FFF75CFEA38923F4906343F08003A38113E02A46BB
:400AC00000F0F5FA064670B921695046FFF720FF0C23CAF80030A3894FF0FF3043F04003A381BDE8F08726613E44266046466561ED1BA560464528BF464649463246206881
:400B000000F0B8FAA36800209B1BA36023681E442660BDE8F08700002DE9F04F9DB003938B8980461C060D4616460DD50B695BB94021FFF739FF2860286118B90C23C8F8F3
:400B40000030CDE040236B610023099320238DF82930DFF89CB130238DF82A3037463C4614F8013B1BB9B7EB060910D003E0252BF9D02746F3E74B46324629464046FFF750
:400B800071FF013000F0A780099B4B4409933B78002B00F0A08000234FF0FF3204930793059206938DF853301A930126052221784E4800F051FA671C049B38B14B4A3C463D
:400BC000801A06FA00F018430490EFE7D90644BF20228DF853201A0744BF2B228DF8532022782A2A03D0079A00210A200BE0039A111D12680391002A10DA524243F00200D3
:400C0000079204900BE027463B780134303B092B03D800FB02320121F5E701B107923B782E2B1ED17B782A2B0AD1039B02371A1D1B680392002BB8BF4FF0FF33059310E076
:400C4000002319460593781C0A2407463A780130303A092A03D804FB01210123F5E703B1059103223978224800F0F6F940B14023CBEB000003FA00F0049B013718430490A9
:400C8000397806221B487E1C8DF8281000F0E4F988B1194B33B9039B073323F007030833039314E003AB00932A46144B04A94046AFF3008007E003AB00932A460F4B04A98D
:400CC000404600F093F8B0F1FF3F824603D0099B5344099342E7AB895B0601D4099801E04FF0FF301DB0BDE8F08F00BFEA110000F0110000F411000000000000650A0000FF
:400D00002DE9F04791461F460A698B6806469342B8BF1346C9F8003091F843200C46DDF8208012B10133C9F800302368990642BFD9F800300233C9F80030256815F0060558
:400D400010D104F1190A07E00123524639463046C04701301AD00135E368D9F800209B1A9D42F1DB94F843302268003318BF012392060FD5E118302081F843005A1C94F8B4
:400D800045102244023382F8431003E04FF0FF30BDE8F08704F1430239463046C0470130F4D02268D9F80050E36802F00602042A08BF5D1B2269A3680CBF25EAE575002592
:400DC0009342C4BF9B1AED184FF000091A344D4509D00123224639463046C0470130D5D009F10109F3E70020BDE8F0872DE9F04317460A7E85B06E2A984606460C460C9B4A
:400E000001F1430E00F0AE8011D8632A22D009D8002A00F0BB80582A40F0CA8081F84520834955E0642A1ED0692A1CD0C0E0732A00F0B08009D86F2A2ED0702A40F0B88006
:400E40000A6842F020020A603EE0752A24D0782A3AD0ADE01A6801F14205111D1960136884F84230A8E021681A6811F0800F02D0111D196008E011F0400F02F10401196048
:400E800002D0B2F9003000E01368002B3CDA2D225B4284F8432037E021681A6811F0800F02D0111D196007E011F0400F02F10401196001D0138800E01368227E5C496F2AA6
:400EC00014BF0A2208221BE078225A4984F845202268186812F0800F00F104051D6003D1550601D5038800E00368D00744BF42F0200222601BB9226822F0200222601022CD
:400F0000002084F8430001E049490A226568002DA56008DB206820F0040020602BB9002D7DD175460CE0002B79D07546B3FBF2F002FB1033CB5C05F8013D03460028F5D197
:400F4000082A0BD12368DA0708D5236962689A42DEBF302305F8013C05F1FF35C5EB0E0323612EE008681A6810F0800F496903D0101D1860136808E010F0400F02F10400ED
:400F80001860136801D0198000E0196000232361754616E01A68111D1960156800216268284600F059F808B1401B6060636804E004F1420584F8422001232361002384F8FF
:400FC0004330CDF800803B4603AA21463046FFF797FE013002D14FF0FF3026E023692A4639463046C0470130F5D023689B0710D5002504F1190907E001234A46394630465F
:40100000C0470130E7D00135E368039A9B1A9D42F2DBE068039B9842B8BF184605E00B7804F1420584F842308AE705B0BDE8F083FB1100000C12000038B5064C0023054606
:4010400008462360FFF7CCF9431C02D1236803B12B6038BDA4C1FF1F10B5C9B202449042034605D01C7801308C42F8D1184610BD002010BD884210B501EB020301D8421ECD
:401080000BE09842FBD28118D21AD34204D013F8014D01F8014DF8E710BD994204D011F8014B02F8014FF8E710BD70477047F8B5074615460E4621B91146BDE8F840FFF7CF
:4010C00073BC1AB9FFF724FC2846F8BD00F015F885420ED929463846FFF766FC044650B131462A46FFF740FB31463846FFF710FC01E03046F8BD2046F8BD51F8040C0028C3
:40110000BEBF091851F8043CC018043870470000000000002C000000496E697469616C697A696E672E2E2E0D0A00000047657474696E672047505320446174612E2E2E0DF8
:401140000A00000024504D544B3331342C302C312C302C312C302C302C302C302C302C302C302C302C302C302C302C302C302C302C302A32380D0A0024474E524D43000051
:401180004C617469747564653A2025732C204C6F6E677469747564653A202573202C54696D653A202573200D0A000000005100401000205100401000405100403000C0512C
:4011C00000401000F0510040100000000140001000140140000800400140000A004C014000020050014020004300232D302B2000686C4C0065666745464700303132333469
:401200003536373839414243444546003031323334353637383961626364656600000000F8B500BFF8BC08BC9E4670474D0000005D040000F8B500BFF8BC08BC9E467047F8
:401240002900000058120000C8C0FF1F80000000600000000000000000000000A8C1FF1F0000E02EC05D00001800000000366E0100000000000000000000000000000000E6
:4012800000000000000000000000000000000000E8110000000000000000000000000000000000000000000000000000000000000000000000000000000000000000000035
:4012C00000000000000000000000000000000000E0C0FF1F000000000000000000000000000000000000000000000000000000000000000000000000000000000000000030
:4013000000000000000000000000000000000000000000000000000000000000000000000000000000000000000000000000000000000000000000000000000000000000AD
:40134000000000000000000000000000000000000000000000000000000000000000000000000000000000000000000000000000000000000000000000000000000000006D
:40138000000000000000000000000000000000000000000000000000000000000000000000000000000000000000000000000000000000000000000000000000000000002D
:4013C00000000000000000000000000000000000000000000000000000000000000000000000000000000000000000000000000000000000000000000000000000000000ED
:020000040001F9
:0200000480007A
:400000000352004004640040026500405E0401403C050140560601403B07014065140140441501405B160140491701400242014001430140014801400E490140045001402F
:40004000180219101C21840F857286388772850F8738001C020204140553070C082009030A030B4414101553160C1704181019201B451C091E101F08280C29802A112D0AE6
:400080002F5430203140321F3380350F373039803B203E013F0540324106450B46C0470E481949FF4AFF4BFF4EF04F44500C5401580459045A045B045F0166C06A406B0281
:4000C000816C8303858089318B4691809531970E9B089F4CA713A980B130B34AB580B70FB902BB88BF01C001C504C9FFCA07CBFFCC40CD20CEF0CF05D008D602D712D9048B
:40010000DA04DB04DF01E040E1A8E240E320001101080420052008100A200B0512081530160418101A402110229623012401260827442B092E102F20328833203410368809
:400140003701382039083A043C013D103E043F0241044320474049884A0A4F04501053085720580259A05A085C046E146F01760977208240C00EC207C402CA6CCCFECEE69A
:40018000D016D204D64F00FF030204E706180702080814BC1642183C1AC11E042004268328182B012C102F013098321F330234203640370138803A083B023E103F44541856
:4001C000580459045B045F0185E789E78A018D028E018F1595449602972A9D80A202AD21AF4AB001B107B202B360B580B718BE05BF40C062C103C205C401C50CC6E0C809F4
:40020000C9FFCAFFCBFFCC62CDA0CEF0CF41D00CD602D713D804D904DA04DB04DC10DD11DF01E640E702E910EA30EB10ED10EE10EF12002001800504060807400B200D805C
:400240000E281302160117251B051C061D021E201F022049211022042508268227402A802F0A3244384039143C023F044001411445084620481049A0531059015E0262C0BC
:40028000666069146A8070A8921494049A099B24B002B308C073C2E4C4F8CA38CC0ACECED00ED20CD681D8300002022404270561078E08270B1C0F08156117961BA31D5CB3
:4002C0001E101F83240826212D602E202F803010320C33F03403351A3620370F38283BA83E504002460449FF4A074BFF4C404D204EF04F055008580459045A045C115D0169
:400300005F01604061A862406320803881018204830E84208567861888128A208C4090019122920693D19544973198189A229C20A428A967B03EB107B318B440B560B601EA
:40034000B780BE50BF04C065C102C6BCC7E0C82CC9FFCAFFCBFFCEF0CF44D00CD401D804D904DA04DB04DC01DD11DF01E6C0EA40EB02001A03400420060107620B010C802C
:400380000D200E80102011801620182419801B021E881F40201A2120220423242408258127182A402E10302032043340370938A03B043D023E05400445204E0650E055405F
:4003C00056615D805E085F1282808301874188208A428B1092149408960197019E809F11A580A702A921AD21C0FEC2D1C425CA28CCCECECED024D230D6F0007F04220804C1
:400400000C08140C1673180F1A701C3320112673280C2C732E0C320F344C36303A284063410542044402450E470C481149FF4AFF4BFF4C624DA04EF04F41500C58045A04D1
:400440005F016640670269106A306B106D106E106F12800281E7831885FF8663887F8B638C038D609073920C9304941F9518966099089C019D10A008A140A404A51CA7E2AC
:40048000A80CA91CABE1AC5CAD24AE23B010B160B22CB40FB51FB64CB780B980BA28BB28BE01D418D804D904DB04DC11DD10DF0100680102040806090740080809010A2002
:4004C0000B010E2910A813401402172519A11A201D041E0A2020210422212302286829022A8030A83302342036203840392A450247144E064F04570859045A0A630A800203
:400500008104862087409040912092149508970498409A099B649DA59E809F03A0ACA102A212A305A580A605A708AC40AE04C0FFC2EDC4FFCA0FCC0FCE0FD0E0D230D6013B
:40054000D80C8220E2209A209A2002100E10562063108210861087109A20C010C220D440D840E0C0E21000030A0310031A030000000B0B00000000001200219292001200BE
:40058000000000000000000000000000000000000000000000000000000000000000000000000000000000000000000000000000000000000000000000000000000000003B
:4005C00000000000000000000000000000000000000000000000000000000000000000000000000000000000000000000000000000000000000000000000000000000000FB
:4006000000000000000000000000000000000000000000000000000000000000000000000000000000000000000000000000000000000000000000000000000000000000BA
:40064000000000000000000000000000000000000000000000000000000000000000000000000000000000000000000000000000000000000000000000000000000000007A
:0200000490006A
:0400000000004005B7
:0200000490105A
:04000000BC90ACAF55
:0200000490303A
:020000004A7044
:0200000490402A
:4000000000000000000000000000000000000000000000000000000000000000000000000000000000000000000000000000000000000000000000000000000000000000C0
:400040000000000000000000000000000000000000000000000000000000000000000000000000000000000000000000000000000000000000000000000000000000000080
:0200000490501A
:0C00000000012E15906900012E1DDAD9B8
:00000001FF